:020000040800F2
:1000000000C00020D52600080D2600081326000891
:10001000192600081F2600082526000800000000F9
:100020000000000000000000000000002B26000877
:100030003726000800000000432600084F2600086D
:100040001D2700081D2700081D2700081D27000880
:100050001D2700081D2700081D2700081D27000870
:100060001D2700081D2700081D2700081D27000860
:100070001D2700081D2700081D2700081D27000850
:100080001D2700081D2700081D2700081D27000840
:100090001D2700081D2700081D2700081D27000830
:1000A0001D2700081D2700081D2700081D27000820
:1000B0001D2700081D2700081D2700081D27000810
:1000C0001D2700081D2700081D2700081D27000800
:1000D0001D2700081D2700081D2700085D260008B1
:1000E0001D2700081D2700081D2700081D270008E0
:1000F0001D2700081D2700081D2700081D270008D0
:100100001D2700081D2700081D2700081D270008BF
:100110001D2700081D2700081D2700081D270008AF
:100120001D2700081D2700081D2700081D2700089F
:1001300000000000000000000000000000000000BF
:1001400000000000000000000000000000000000AF
:10015000000000000000000000000000000000009F
:10016000000000000000000000000000000000008F
:10017000000000000000000000000000000000007F
:10018000000000000000000000000000000000006F
:10019000000000000000000000000000000000005F
:1001A000000000000000000000000000000000004F
:1001B000000000000000000000000000000000003F
:1001C000000000000000000000000000000000002F
:1001D000000000000000000000000000000000001F
:0401E0005FF8E0F1F3
:1001E40010B5054C237833B9044B13B10448AFF36D
:1001F40000800123237010BDDC01002000000000FA
:10020400E439000808B5034B1BB103490348AFF3B5
:10021400008008BD00000000E0010020E43900086F
:10022400034613F8012B002AFBD1181A0138704732
:1002340080B500AF084A084B1B6843F010031360F5
:10024400032000F043F90F2000F008F802F00EF943
:100254000023184680BD00BF0020024080B582B054
:1002640000AF7860124B1A68124B1B7819464FF492
:100274007A73B3FBF1F3B2FBF3F3184600F05BF9C6
:100284000346002B01D001230EE07B680F2B0AD814
:10029400002279684FF0FF3000F023F9064A7B68AA
:1002A4001360002300E0012318460837BD4680BDD3
:1002B40008000020040000200000002080B400AFEB
:1002C400054B1B781A46054B1B681344034A1360FD
:1002D40000BFBD4680BC704704000020040300201A
:1002E40080B400AF024B1B681846BD4680BC704703
:1002F4000403002080B584B000AF7860FFF7F0FFFE
:10030400B8607B68FB60FB68B3F1FF3F05D0094B25
:100314001B781A46FB681344FB6000BFFFF7E0FF3D
:100324000246BB68D21AFB689A42F7D300BF103763
:10033400BD4680BD0400002080B485B000AF786065
:100344007B6803F00703FB600C4BDB68BB60BA6897
:100354004FF6FF031340BB60FB681A02BB681343EC
:1003640043F0BF6343F40033BB60044ABB68D3600B
:1003740000BF1437BD4680BC704700BF00ED00E0ED
:1003840080B400AF044BDB681B0A03F00703184674
:10039400BD4680BC704700BF00ED00E080B483B070
:1003A40000AF0346FB7197F90730002B0BDB0849BC
:1003B40097F907305B09FA7902F01F02012000FA6D
:1003C40002F241F8232000BF0C37BD4680BC7047C1
:1003D40000E100E080B483B000AF03463960FB71F4
:1003E40097F90730002B0ADB0D4997F907303A6873
:1003F400D2B21201D2B20B4483F800230AE00949B5
:10040400FB7903F00F03043B3A68D2B21201D2B273
:100414000B441A7600BF0C37BD4680BC704700BF42
:1004240000E100E000ED00E080B489B000AFF860C6
:10043400B9607A60FB6803F00703FB61FB69C3F1F1
:100444000703042B28BF0423BB61FB690433062B79
:1004540002D9FB69033B00E000237B610122BB69F5
:1004640002FA03F35A1EBB681A407B699A400121C1
:100474007B6901FA03F3591E7B680B40134318464A
:100484002437BD4680BC704780B582B000AF786029
:100494007B68013BB3F1807F01D301230FE00A4A5B
:1004A4007B68013B53600F214FF0FF30FFF792FF51
:1004B400054B00229A60044B07221A600023184659
:1004C4000837BD4680BD00BF10E000E080B582B0B3
:1004D40000AF78607868FFF72FFF00BF0837BD468C
:1004E40080BD80B586B000AF0346B9607A60FB7307
:1004F40000237B61FFF744FF78617A68B968786903
:10050400FFF792FF024697F90F3011461846FFF79E
:1005140061FF00BF1837BD4680BD80B582B000AF13
:100524000346FB7197F907301846FFF737FF00BF02
:100534000837BD4680BD80B582B000AF786078686A
:10054400FFF7A2FF034618460837BD4680BD80B4B6
:1005540085B000AF78600023FB737B6893F821308B
:10056400022B08D07B6804229A637B68002283F8FC
:100574002020012320E07B681B687A6812681268D7
:1005840022F00E021A607B681B687A68126812688F
:1005940022F001021A607B68DB6B7A68126C01211D
:1005A40001FA02F25A607B68012283F821207B68F9
:1005B400002283F82020FB7B18461437BD4680BCFC
:1005C4007047000080B584B000AF78600023FB73EF
:1005D4007B6893F82130022B05D07B6804229A6350
:1005E4000123FB73ECE07B681B687A68126812686D
:1005F40022F00E021A607B681B687A68126812681F
:1006040022F001021A607B681B681A466F4B9A42FB
:1006140063D96F4A7B681B6819466E4B994259D05F
:100624007B681B6819466C4B994251D07B681B68E8
:1006340019466A4B994248D07B681B681946684B37
:1006440099423FD07B681B681946664B994236D065
:100654007B681B681946644B99422DD07B681B68E4
:1006640019465A4B994224D07B681B6819465F4B44
:1006740099421CD07B681B6819465D4B994214D083
:100684007B681B6819465B4B99420BD07B681B68DF
:100694001946594B994202D14FF480531BE04FF451
:1006A400803318E04FF4807315E0102313E0012326
:1006B40011E04FF080730EE04FF480130BE04FF421
:1006C400803308E04FF4805305E04FF4807302E078
:1006D400102300E00123536062E0484A7B681B68F2
:1006E40019463C4B994259D07B681B6819463A4BD2
:1006F400994251D07B681B681946384B994248D0BF
:100704007B681B681946364B99423FD07B681B684F
:100714001946344B994236D07B681B681946324BD4
:1007240099422DD07B681B681946284B994224D0E6
:100734007B681B6819462D4B99421CD07B681B684B
:1007440019462B4B994214D07B681B681946294BD8
:1007540099420BD07B681B681946274B994202D1FA
:100764004FF480531BE04FF4803318E04FF4807350
:1007740015E0102313E0012311E04FF080730EE025
:100784004FF480130BE04FF4803308E04FF48053B0
:1007940005E04FF4807302E0102300E0012353606E
:1007A4007B68012283F821207B68002283F82020C3
:1007B4007B685B6B002B03D07B685B6B7868984726
:1007C400FB7B18461037BD4680BD00BF8000024049
:1007D40000040240080002401C00024030000240B5
:1007E40044000240580002406C00024008040240E9
:1007F4001C04024030040240440402400000024051
:1008040080B48BB000AF7860396000237B62002332
:100814003B6233E101227B6A02FA03F3FB613B682A
:100824001A68FB691340BB61BA69FB699A4240F0DC
:1008340022813B685B68122B34D0122B0DD8022B1B
:100844002BD0022B04D8002B31D0012B1CD048E034
:10085400032B43D0112B1BD043E08F4A934226D065
:100864008D4A934206D88D4A934220D08C4A9342B3
:100874001DD036E08B4A934219D08B4A934216D04E
:100884008A4A934213D02CE03B68DB683B6228E041
:100894003B68DB6804333B6223E03B68DB68083376
:1008A4003B621EE03B68DB680C333B6219E03B684B
:1008B4009B68002B02D104233B6212E03B689B68D7
:1008C400012B05D108233B627B68FA691A6108E0B1
:1008D40008233B627B68FA695A6102E000233B62A9
:1008E40000BFBB69FF2B01D87B6801E07B68043340
:1008F4007B61BB69FF2B02D87B6A9B0002E07B6AA9
:10090400083B9B003B617B691A680F213B6901FA34
:1009140003F3DB431A40396A3B6901FA03F31A43D0
:100924007B691A603B685B6803F08053002B00F01E
:10093400A2805F4A5E4B9B6943F0010393615C4B69
:100944009B6903F00103BB60BB685A4A7B6A9B083E
:10095400023352F82330FB607B6A03F003039B00ED
:100964000F2202FA03F3DB43FA681340FB607B684F
:10097400514A93421FD07B68504A934219D07B68F6
:100984004F4A934213D07B684E4A93420DD07B6802
:100994004D4A934207D07B684C4A934201D10523C8
:1009A4000AE0062308E0042306E0032304E002230C
:1009B40002E0012300E000237A6A02F003029200BD
:1009C4009340FA681343FB603A497B6A9B080233FD
:1009D400FA6841F823203B685B6803F48033002BFA
:1009E40006D03B493A4B1A68BB6913430B6006E0D7
:1009F4003749374B1A68BB69DB4313400B603B68CC
:100A04005B6803F40033002B06D03149304B5A683D
:100A1400BB6913434B6006E02D492D4B5A68BB69F3
:100A2400DB4313404B603B685B6803F48013002B8B
:100A340006D02749264B9A68BB6913438B6006E0AE
:100A44002349234B9A68BB69DB4313408B603B68A3
:100A54005B6803F40013002B06D01D491C4BDA68B5
:100A6400BB691343CB6006E01949194BDA68BB69CB
:100A7400DB431340CB607B6A01337B623B681A68BB
:100A84007B6A22FA03F3002B7FF4C4AE00BF2C3739
:100A9400BD4680BC704700BF00002110000011104B
:100AA400000012100000311000003210000022106B
:100AB400001002400000014000080140000C014009
:100AC400001001400014014000180140001C0140C6
:100AD4000004014080B483B000AF78600B467B8093
:100AE40013467B707B78002B03D07A887B681A616D
:100AF40003E07B881A047B681A6100BF0C37BD468B
:100B040080BC704780B586B000AF78607B68002BEE
:100B140001D101236CE27B681B6803F00103002B05
:100B240000F08780924B5B6803F00C03042B0CD01D
:100B34008F4B5B6803F00C03082B12D18C4B5B6862
:100B440003F48033B3F5803F0BD1894B1B6803F466
:100B54000033002B6CD07B685B68002B68D10123C9
:100B640046E27B685B68B3F5803F06D1804A804BE0
:100B74001B6843F4803313602EE07B685B68002BB2
:100B84000CD17B4A7A4B1B6823F480331360784A78
:100B9400774B1B6823F4802313601DE07B685B683C
:100BA400B3F5A02F0CD1724A714B1B6843F4802318
:100BB40013606F4A6E4B1B6843F4803313600BE081
:100BC4006B4A6B4B1B6823F480331360684A684B91
:100BD4001B6823F4802313607B685B68002B13D0AD
:100BE400FFF77EFB386108E0FFF77AFB02463B69BA
:100BF400D31A642B01D90323FAE15D4B1B6803F478
:100C04000033002BF0D014E0FFF76AFB386108E0F2
:100C1400FFF766FB02463B69D31A642B01D9032311
:100C2400E6E1534B1B6803F40033002BF0D100E0E2
:100C340000BF7B681B6803F00203002B63D04C4B9E
:100C44005B6803F00C03002B0BD0494B5B6803F08B
:100C54000C03082B1CD1464B5B6803F48033002B38
:100C640016D1434B1B6803F00203002B05D07B68AD
:100C74001B69012B01D00123BAE13D493C4B1B68A0
:100C840023F0F8027B685B69DB0013430B603AE0F6
:100C94007B681B69002B20D0364B01221A60FFF7BA
:100CA4001FFB386108E0FFF71BFB02463B69D31AC0
:100CB400022B01D903239BE12D4B1B6803F0020394
:100CC400002BF0D02A492A4B1B6823F0F8027B68DA
:100CD4005B69DB0013430B6015E0264B00221A60AE
:100CE400FFF7FEFA386108E0FFF7FAFA02463B69BB
:100CF400D31A022B01D903237AE11D4B1B6803F09D
:100D04000203002BF0D17B681B6803F00803002B5F
:100D14003AD07B689B69002B19D0174B01221A60CB
:100D2400FFF7DEFA386108E0FFF7DAFA02463B69BA
:100D3400D31A022B01D903235AE10D4B5B6A03F04A
:100D44000203002BF0D0012000F0DAFA1CE00A4B79
:100D540000221A60FFF7C4FA38610FE0FFF7C0FA07
:100D640002463B69D31A022B08D9032340E100BF92
:100D74000010024000004242800442429E4B5B6AE3
:100D840003F00203002BE9D17B681B6803F0040322
:100D9400002B00F0A6800023FB75974BDB6903F062
:100DA4008053002B0DD1944A934BDB6943F080535D
:100DB400D361914BDB6903F08053BB60BB680123B3
:100DC400FB758E4B1B6803F48073002B18D18B4A80
:100DD4008A4B1B6843F480731360FFF781FA386110
:100DE40008E0FFF77DFA02463B69D31A642B01D968
:100DF4000323FDE0814B1B6803F48073002BF0D0C8
:100E04007B68DB68012B06D17B4A7B4B1B6A43F072
:100E1400010313622DE07B68DB68002B0CD1764A5A
:100E2400754B1B6A23F001031362734A724B1B6AEE
:100E340023F0040313621CE07B68DB68052B0CD1F0
:100E44006D4A6D4B1B6A43F0040313626A4A6A4B92
:100E54001B6A43F0010313620BE0674A664B1B6A8B
:100E640023F001031362644A634B1B6A23F00403F7
:100E740013627B68DB68002B15D0FFF731FA386109
:100E84000AE0FFF72DFA02463B69D31A41F2883291
:100E9400934201D90323ABE0574B1B6A03F00203CF
:100EA400002BEED014E0FFF71BFA38610AE0FFF7DD
:100EB40017FA02463B69D31A41F28832934201D9A8
:100EC400032395E04C4B1B6A03F00203002BEED185
:100ED400FB7D012B05D1484A474BDB6923F0805346
:100EE400D3617B68DB69002B00F08180424B5B6837
:100EF40003F00C03082B61D07B68DB69022B46D11D
:100F04003F4B00221A60FFF7EBF9386108E0FFF766
:100F1400E7F902463B69D31A022B01D9032367E0A0
:100F2400354B1B6803F00073002BF0D17B681B6A00
:100F3400B3F5803F08D130492F4B5B6823F400326E
:100F44007B689B6813434B602B482B4B5B6823F4F3
:100F540074127B68196A7B685B6A0B4313434360B2
:100F6400274B01221A60FFF7BBF9386108E0FFF74D
:100F7400B7F902463B69D31A022B01D9032337E0A0
:100F84001D4B1B6803F00073002BF0D02FE01C4BAB
:100F940000221A60FFF7A4F9386108E0FFF7A0F90E
:100FA40002463B69D31A022B01D9032320E0124BDA
:100FB4001B6803F00073002BF0D118E07B68DB6939
:100FC400012B01D1012313E00B4B5B68FB60FB6831
:100FD40003F480327B681B6A9A4206D1FB6803F4EF
:100FE40070127B685B6A9A4201D0012300E00023FF
:100FF40018461837BD4680BD0010024000700040FE
:101004006000424280B584B000AF786039607B688C
:10101400002B01D10123D0E06A4B1B6803F00702C7
:101024003B689A4210D26749664B1B6823F007025B
:101034003B6813430B60634B1B6803F007023B6878
:101044009A4201D00123B8E07B681B6803F00203D5
:10105400002B20D07B681B6803F00403002B05D011
:10106400594A594B5B6843F4E06353607B681B68DF
:1010740003F00803002B05D0534A534B5B6843F439
:10108400605353605049504B5B6823F0F0027B6817
:101094009B6813434B607B681B6803F00103002BC0
:1010A40040D07B685B68012B07D1474B1B6803F476
:1010B4000033002B15D101237FE07B685B68022B92
:1010C40007D1414B1B6803F00073002B09D10123A6
:1010D40073E03D4B1B6803F00203002B01D1012395
:1010E4006BE03949384B5B6823F003027B685B682B
:1010F40013434B60FFF7F4F8F8600AE0FFF7F0F8E9
:101104000246FB68D31A41F28832934201D9032381
:1011140053E02D4B5B6803F00C027B685B689B001B
:101124009A42EBD1274B1B6803F007023B689A42B3
:1011340010D92449234B1B6823F007023B6813434F
:101144000B60204B1B6803F007023B689A4201D0F6
:10115400012332E07B681B6803F00403002B08D0F2
:101164001949194B5B6823F4E0627B68DB6813431D
:101174004B607B681B6803F00803002B09D01249FD
:10118400114B5B6823F460527B681B69DB001343DB
:101194004B6000F021F801460B4B5B681B0903F020
:1011A4000F030A4AD35C21FA03F3094A1360094B7B
:1011B4001B681846FFF752F8002318461037BD463F
:1011C40080BD00BF0020024000100240783A0008B1
:1011D400080000200000002090B48AB000AF2A4B21
:1011E4003C1D0FCB84E80F00284B1B883B80002359
:1011F400FB610023BB6100237B6200237B6100232E
:101204003B62234B5B68FB61FB6903F00C03042B1B
:1012140002D0082B03D02DE01E4B3B622DE0FB696E
:101224009B0C03F00F0307F12802134413F8243C2A
:101234007B61FB6903F48033002B13D0144B5B6890
:101244005B0C03F0010307F12802134413F8283C54
:10125400BB617B690F4A02FB03F2BB69B2FBF3F388
:101264007B6204E07B690C4A02FB03F37B627B6ACA
:101274003B6202E0074B3B6200BF3B6A18462837DB
:10128400BD4690BC704700BFFC3900080C3A00080A
:101294000010024000127A0000093D0080B400AF43
:1012A400024B1B681846BD4680BC704708000020EE
:1012B40080B500AFFFF7F2FF0146054B5B681B0AE0
:1012C40003F00703034AD35C21FA03F3184680BDF5
:1012D40000100240883A000880B500AFFFF7DEFF37
:1012E4000146054B5B68DB0A03F00703034AD35C42
:1012F40021FA03F3184680BD00100240883A000822
:1013040080B485B000AF78600A4B1B680A4AA2FB20
:1013140003235B0A7A6802FB03F3FB6000BFFB68EC
:101324005A1EFA60002BF9D100BF1437BD4680BCA9
:10133400704700BF08000020D34D621080B582B012
:1013440000AF78607B68002B01D101233FE07B680C
:1013540093F83D30DBB2002B06D17B68002283F882
:101364003C20786801F0B4F87B68242283F83D209F
:101374007B681B687A681268D26822F40052DA60CB
:10138400786800F027FD7B681B687A681268126928
:1013940022F490421A617B681B687A681268526969
:1013A40022F02A025A617B681B687A681268D26844
:1013B40042F40052DA607B6800221A647B682022BF
:1013C40083F83D207B68202283F83E2000231846C2
:1013D4000837BD4680BD80B58AB002AFF860B960F9
:1013E4003B601346FB8000237B61FB6893F83D3030
:1013F400DBB2202B7BD1BB68002B02D0FB88002BF7
:1014040001D1012374E0FB6893F83C30012B01D136
:1014140002236DE0FB68012283F83C20FB68002274
:101424001A64FB68212283F83D20FEF759FF786196
:10143400FB68FA889A84FB68FA88DA84FB689B68FC
:10144400B3F5805F08D1FB681B69002B04D100232E
:10145400FB61BB68BB6103E0BB68FB610023BB614C
:10146400FB68002283F83C2029E03B6800937B69F9
:1014740000228021F86800F0DAFA0346002B01D03C
:10148400032335E0FB69002B0AD1FB681B68BA69AA
:101494001288C2F308025A60BB690233BB6107E0D9
:1014A400FB681B68FA6912785A60FB690133FB61B7
:1014B400FB68DB8C9BB2013B9AB2FB68DA84FB6865
:1014C400DB8C9BB2002BD0D13B6800937B6900225C
:1014D4004021F86800F0ABFA0346002B01D0032347
:1014E40006E0FB68202283F83D20002300E002236D
:1014F40018462037BD4680BD80B58AB002AFF8607B
:10150400B9603B601346FB8000237B61FB6893F862
:101514003E30DBB2202B40F08C80BB68002B02D025
:10152400FB88002B01D1012384E0FB6893F83C3055
:10153400012B01D102237DE0FB68012283F83C20CA
:10154400FB6800221A64FB68222283F83E20FB68B1
:1015540000221A63FEF7C4FE7861FB68FA889A8554
:10156400FB68FA88DA85FB689B68B3F5805F08D16D
:10157400FB681B69002B04D10023FB61BB68BB61C2
:1015840003E0BB68FB610023BB61FB68002283F8B6
:101594003C2043E03B6800937B6900222021F868EB
:1015A40000F045FA0346002B01D0032342E0FB6917
:1015B400002B0CD1FB681B685B689BB2C3F3080368
:1015C4009AB2BB691A80BB690233BB611FE0FB6836
:1015D4009B68B3F5805F07D0FB689B68002B0AD13A
:1015E400FB681B69002B06D1FB681B685B68DAB2D9
:1015F400FB691A7008E0FB681B685B68DBB203F0E8
:101604007F03DAB2FB691A70FB690133FB61FB6883
:10161400DB8D9BB2013B9AB2FB68DA85FB68DB8DFC
:101624009BB2002BB6D1FB68202283F83E20002316
:1016340000E0022318462037BD4680BD80B584B043
:1016440000AFF860B9601346FB80FB6893F83E3046
:10165400DBB2202B1DD1BB68002B02D0FB88002BF2
:1016640001D1012316E0FB6893F83C30012B01D132
:1016740002230FE0FB68012283F83C20FB68002270
:101684001A63FB881A46B968F86800F01AFA034628
:1016940000E0022318461037BD4680BD80B58AB0ED
:1016A40000AF78607B681B681B687B627B681B6883
:1016B400DB683B627B681B685B69FB610023BB6181
:1016C40000237B617B6A03F00F03BB61BB69002BC2
:1016D4000DD17B6A03F02003002B08D03B6A03F092
:1016E4002003002B03D0786800F0CAFA7CE1BB69C0
:1016F400002B00F0B180FB6903F00103002B05D13E
:101704003B6A03F49073002B00F0A6807B6A03F01D
:101714000103002B0AD03B6A03F48073002B05D02D
:101724007B681B6C43F001027B681A647B6A03F0DC
:101734000403002B0AD0FB6903F00103002B05D03E
:101744007B681B6C43F002027B681A647B6A03F0BB
:101754000203002B0AD0FB6903F00103002B05D020
:101764007B681B6C43F004027B681A647B6A03F099
:101774000803002B0FD03B6A03F02003002B04D195
:10178400FB6903F00103002B05D07B681B6C43F05D
:1017940008027B681A647B681B6C002B00F01F81B5
:1017A4007B6A03F02003002B07D03B6A03F020037D
:1017B400002B02D0786800F063FA7B681B685B69D1
:1017C40003F04003002B14BF01230023DBB27B6131
:1017D4007B681B6C03F00803002B02D17B69002B90
:1017E40031D0786800F0A6F97B681B685B6903F068
:1017F4004003002B23D07B681B687A681268526907
:1018040022F040025A617B689B6B002B13D07B68EB
:101814009B6B774A5A637B689B6B1846FEF7D2FE34
:101824000346002B16D07B689B6B5B6B7A68926BCC
:10183400104698470EE0786800F0E5F80AE078680A
:1018440000F0E1F806E0786800F0DDF87B6800223B
:101854001A64C4E000BFC2E07B681B6B012B40F03C
:10186400A1807B6A03F01003002B00F09B803B6A8D
:1018740003F01003002B00F095800023FB607B68CD
:101884001B681B68FB607B681B685B68FB60FB680C
:101894007B681B685B6903F04003002B4ED07B68B8
:1018A4009B6B1B685B687B827B8A002B00F09980B2
:1018B4007B689B8D7A8A9A4280F093807B687A8ACF
:1018C400DA857B689B6B9B69202B2BD07B681B681C
:1018D4007A681268D26822F48072DA607B681B68C6
:1018E4007A681268526922F001025A617B681B68A7
:1018F4007A681268526922F040025A617B68202299
:1019040083F83E207B6800221A637B681B687A6830
:101914001268D26822F01002DA607B689B6B18466A
:10192400FEF715FE7B689A8D7B68DB8D9BB2D31A1C
:101934009BB21946786800F06FF852E07B689A8D84
:101944007B68DB8D9BB2D31A3B827B68DB8D9BB2B9
:10195400002B48D03B8A002B45D07B681B687A68F3
:101964001268D26822F49072DA607B681B687A6825
:101974001268526922F001025A617B68202283F8BE
:101984003E207B6800221A637B681B687A681268B1
:10199400D26822F01002DA603B8A1946786800F0B7
:1019A4003BF820E07B6A03F08003002B08D03B6AFD
:1019B40003F08003002B03D0786800F0FBF813E0F9
:1019C4007B6A03F04003002B0ED03B6A03F0400314
:1019D400002B09D0786800F03BF900BF04E000BF99
:1019E40002E000BF00E000BF2837BD4680BD00BF55
:1019F400911B000880B483B000AF786000BF0C373F
:101A0400BD4680BC704780B483B000AF786000BF2F
:101A14000C37BD4680BC704780B483B000AF78609B
:101A24000B467B8000BF0C37BD4680BC704780B539
:101A340084B000AFF860B9603B601346FB712CE0E2
:101A4400BB69B3F1FF3F28D0BB69002B07D0FEF779
:101A540047FC02463B68D21ABB699A421DD9FB680F
:101A64001B68FA681268D26822F4D072DA60FB68E4
:101A74001B68FA681268526922F001025A61FB6815
:101A8400202283F83D20FB68202283F83E20FB6857
:101A9400002283F83C2003230FE0FB681B681A68CC
:101AA400BB681A40BB689A420CBF01230023DBB217
:101AB4001A46FB799A42C3D0002318461037BD4614
:101AC40080BD80B485B000AFF860B9601346FB8078
:101AD400FB68BA689A62FB68FA889A85FB68FA8898
:101AE400DA85FB6800221A64FB68222283F83E2010
:101AF400FB68002283F83C20FB681B68FA681268C4
:101B0400D26842F48072DA60FB681B68FA68126873
:101B1400526942F001025A61FB681B68FA68126854
:101B2400D26842F02002DA60002318461437BD461A
:101B340080BC704780B483B000AF78607B681B685A
:101B44007A681268D26822F49072DA607B681B6843
:101B54007A681268526922F001025A617B681B6B31
:101B6400012B07D17B681B687A681268D26822F05F
:101B74001002DA607B68202283F83E207B68002212
:101B84001A6300BF0C37BD4680BC704780B584B073
:101B940000AF78607B685B6AFB60FB680022DA85D3
:101BA400FB680022DA84F868FFF72DFF00BF1037C6
:101BB400BD4680BD80B485B000AF78607B6893F883
:101BC4003D30DBB2212B3DD17B689B68B3F5805F50
:101BD40013D17B681B69002B0FD17B681B6AFB60E8
:101BE4007B681B68FA681288C2F308025A607B6833
:101BF4001B6A9A1C7B681A6208E07B681A687B6817
:101C04001B6A581C796808621B7853607B68DB8CFC
:101C14009BB2013B9BB27A681946D184002B0FD149
:101C24007B681B687A681268D26822F08002DA60E6
:101C34007B681B687A681268D26842F04002DA60F6
:101C4400002300E0022318461437BD4680BC7047C9
:101C540080B582B000AF78607B681B687A681268D0
:101C6400D26822F04002DA607B68202283F83D20AB
:101C74007868FFF7BFFE002318460837BD4680BDCD
:101C840080B586B000AF78607B6893F83E30DBB2F5
:101C9400222B40F099807B689B68B3F5805F17D155
:101CA4007B681B69002B13D100237B617B689B6AD3
:101CB4003B617B681B685B689BB2C3F308039AB201
:101CC4003B691A807B689B6A9A1C7B689A6226E04F
:101CD4007B689B6A7B6100233B617B689B68B3F5EF
:101CE400805F07D07B689B68002B0AD17B681B69E7
:101CF400002B06D17B681B685B68DAB27B691A70BB
:101D040008E07B681B685B68DBB203F07F03DAB230
:101D14007B691A707B689B6A5A1C7B689A627B6831
:101D2400DB8D9BB2013B9BB27A681946D185002BAF
:101D340048D17B681B687A681268D26822F0200256
:101D4400DA607B681B687A681268D26822F4807251
:101D5400DA607B681B687A681268526922F00102B3
:101D64005A617B68202283F83E207B681B6B012B21
:101D740023D17B6800221A637B681B687A68126827
:101D8400D26822F01002DA607B681B681B6803F0DB
:101D94001003102B0AD10023FB607B681B681B68AF
:101DA400FB607B681B685B68FB60FB687B689B8DE2
:101DB40019467868FFF730FE02E0786800F094F97D
:101DC400002302E0002300E0022318461837BD4632
:101DD40080BD000090B585B000AF78607B681B685B
:101DE4007A681268126922F440517A68D2680A4308
:101DF4001A617B689A687B681B691A437B685B6914
:101E04001343BB607B681A687B681B68DB6823F438
:101E1400B05323F00C03B9680B43D3607B681B6891
:101E24007A681268526922F440717A6892690A43A6
:101E34005A617B681B682C4A934203D1FFF74CFA22
:101E4400F86002E0FFF734FAF8607B681968FA6812
:101E540013469B0013449A001A447B685B689B00FA
:101E6400B2FBF3F3214AA2FB03235B091801FA68CE
:101E740013469B0013449A001A447B685B689B00DA
:101E8400B2FBF3F2194BA3FB02435B09642404FB8A
:101E940003F3D31A1B013233144AA2FB03235B0955
:101EA40003F0F0031844FA6813469B0013449A00A5
:101EB4001A447B685B689B00B2FBF3F20B4BA3FBF9
:101EC40002435B09642404FB03F3D31A1B0132337A
:101ED400064AA2FB03235B0903F00F0303448B6050
:101EE40000BF1437BD4690BD003801401F85EB513B
:101EF40080B582B000AF0346FB7100224FF48071BD
:101F04000548FEF7E7FDFB79184600F06BF800BFC3
:101F14000837BD4680BD00BF0010014080B582B0C7
:101F240000AF0346FB7101224FF480710548FEF7B0
:101F3400D1FDFB79184600F055F800BF0837BD46BF
:101F440080BD00BF0010014080B582B000AF0346E1
:101F5400FB71FB7903F00103002B14BF0123002361
:101F6400DBB21A4610211E48FEF7B4FDFB7903F0DC
:101F74000203002B14BF01230023DBB21A462021E5
:101F84001748FEF7A7FDFB7903F00403002B14BFE9
:101F940001230023DBB21A4640211148FEF79AFDC3
:101FA400FB7903F00803002B14BF01230023DBB2E9
:101FB4001A4680210A48FEF78DFD01224FF4007174
:101FC4000748FEF787FD0120FEF794F900224FF43D
:101FD40000710348FEF77EFD00BF0837BD4680BD93
:101FE4000010014080B582B000AF0346FB71FB795D
:101FF4001B09DBB21846FFF7A7FFFB791846FFF76A
:10200400A3FF00BF0837BD4680BD80B582B000AFD6
:10201400786007E07B681B781846FFF77FFF7B68D2
:1020240001337B607B681B78002BF3D100BF08373A
:10203400BD4680BD80B500AF3320FFF759FF322085
:10204400FFF756FF2820FFF753FF0620FFF750FF46
:102054000C20FFF74DFF0120FFF74AFF00BF80BDB2
:1020640080B500AF0120FFF743FF0220FEF742F9DD
:1020740000BF80BD80B584B000AF03460A46FB7143
:102084001346BB71FB79002B01D1002300E04023F0
:10209400FB73FA7BBB791344FB73FB7B63F07F0315
:1020A400DBB21846FFF724FF00BF1037BD4680BDE2
:1020B4000FB480B582B000AF07F114033B603B68F6
:1020C4003A694FF48071074800F0B2FB7860054824
:1020D400FFF79BFF7B6818460837BD46BDE8804084
:1020E40004B07047F801002080B582B000AF78607A
:1020F4007B681B68204A934235D1204B1B78622BA6
:102104000ED0632B17D0612B20D11C4B1A781C4B9B
:102114001A70642301221A491A48FFF75CF922E075
:10212400164B1A78164B1A70642301221449154869
:10213400FFF751F917E0114B1A78114B1A70642309
:1021440001220F490F48FFF746F90CE00C4B7922A6
:102154001A70642301220A490A48FFF73CF9074B25
:1021640000221A7000BF012204490748FFF766FAEB
:1021740000BF0837BD4680BD0048004095030020DD
:10218400980300204C0300200803002080B500AF12
:10219400FEF74EF800F07EF800F00CF900F0B6F807
:1021A40000F0DEF8FFF746FF01222D492D48FFF726
:1021B40045FA642305222C492C48FFF79DF9034670
:1021C400002B32D12A4A2B49274800F0D9FA0021A2
:1021D4000020FFF74FFF264B1B88B3F5967F0AD2EA
:1021E4002548FFF765FF00210120FFF743FF23483F
:1021F400FFF75EFF05E02248FFF75AFF1A48FFF792
:1022040057FF1B4B1B8840F26C72934206D9002186
:102214000120FFF72FFF1B48FFF74AFF4FF47A70A6
:10222400FEF768F8FFF71CFF06E000210020FFF727
:1022340021FF1548FFF73CFF144B1B78612B07D097
:10224400124B1B78622B03D0104B1B78632BB0D13D
:1022540000210120FFF70EFF0D48FFF729FFA8E733
:102264009503002008030020900300204C03002065
:1022740096030020103A0008143A0008283A00088F
:102284003C3A0008483A0008503A000898030020F5
:10229400643A000880B590B000AF07F11803282213
:1022A4000021184600F064FA3B1D00221A605A60AF
:1022B4009A60DA601A610223BB610123BB621023B6
:1022C400FB6200237B6307F118031846FEF71AFC30
:1022D4000346002B01D000F0C5F80F237B600023D8
:1022E400BB600023FB6000233B6100237B613B1D3B
:1022F40000211846FEF786FE0346002B01D000F0AD
:10230400B1F800BF4037BD4680BD000080B500AFC6
:10231400114B124A1A60104B4FF4E1325A600E4BC3
:1023240000229A600C4B0022DA600B4B00221A61E7
:10233400094B0C225A61084B00229A61064B002279
:10234400DA610548FEF7FAFF0346002B01D000F0DE
:1023540089F800BF80BD00BF4C0300200038014055
:1023640080B500AF114B124A1A60104B4FF416524D
:102374005A600E4B00229A600C4B0022DA600B4B21
:1023840000221A61094B0C225A61084B00229A61FF
:10239400064B0022DA610548FEF7D0FF0346002B06
:1023A40001D000F05FF800BF80BD00BF080300202B
:1023B4000048004080B588B000AF07F11003002248
:1023C4001A605A609A60DA60244A244B9B6943F08D
:1023D40010039361214B9B6903F01003FB60FB68BE
:1023E4001E4A1E4B9B6943F0200393611B4B9B6960
:1023F40003F02003BB60BB68184A184B9B6943F089
:1024040008039361154B9B6903F008037B607B68A9
:10241400124A124B9B6943F0040393610F4B9B696F
:1024240003F004033B603B6800224FF47C710C48CA
:10243400FEF750FB4FF47C733B6101237B61002367
:10244400BB610223FB6107F1100319460448FEF740
:10245400D7F900BF2037BD4680BD00BF0010024041
:102464000010014080B400AF72B6FEE780B485B0BE
:1024740000AF154A144B9B6943F001039361124B5F
:102484009B6903F00103BB60BB680F4A0E4BDB6919
:1024940043F08053D3610C4BDB6903F080537B60C2
:1024A4007B680A4B5B68FB60FB6823F0E063FB60BE
:1024B400FB6843F00073FB60044AFB68536000BF91
:1024C4001437BD4680BC7047001002400000014034
:1024D40080B58CB000AF786007F11C0300221A604D
:1024E4005A609A60DA607B681B68424A93423ED124
:1024F400414A414B9B6943F4804393613E4B9B6942
:1025040003F48043BB61BB693B4A3B4B9B6943F08B
:1025140008039361384B9B6903F008037B617B6973
:102524004023FB6102233B620323BB6207F11C03CC
:1025340019463248FEF764F98023FB6100233B62AD
:1025440000237B6207F11C0319462C48FEF758F957
:102554002B4B5B68FB62FB6A43F0E063FB62FB6A44
:1025640043F00403FB62264AFB6A53603EE07B6847
:102574001B68244A934239D11F4A1F4BDB6943F439
:102584008023D3611C4BDB6903F480233B613B69EB
:10259400194A194B9B6943F008039361164B9B69D5
:1025A40003F00803FB60FB684FF48063FB610223C4
:1025B4003B620323BB6207F11C0319460F48FEF775
:1025C4001FF94FF40063FB6100233B6200237B622D
:1025D40007F11C0319460948FEF712F900220021ED
:1025E4002720FDF77EFF2720FDF797FF00BF303738
:1025F400BD4680BD0038014000100240000C01407F
:10260400000001400048004080B400AFFEE780B401
:1026140000AFFEE780B400AFFEE780B400AFFEE792
:1026240080B400AFFEE780B400AF00BFBD4680BCFD
:10263400704780B400AF00BFBD4680BC704780B413
:1026440000AF00BFBD4680BC704780B500AFFDF74A
:1026540035FE00BF80BD000080B500AF0248FFF723
:102664001DF800BF80BD00BF0803002080B584B002
:1026740000AF7860114B1B68002B02D10F4B104A3E
:102684001A600E4B1B68FB600C4B1A687B68134482
:102694006A46934207D900F041F802460C231360BE
:1026A4004FF0FF3306E0054B1A687B681344034A76
:1026B4001360FB6818461037BD4680BDF802002041
:1026C400A003002080B400AF00BFBD4680BC7047AB
:1026D4000C480D490D4A002302E0D458C450043379
:1026E400C4188C42F9D30A4A0A4C002301E013604F
:1026F4000432A242FBD3FFF7E5FF00F015F8FFF721
:1027040045FD704700000020DC010020543C000817
:10271400DC010020A0030020FEE70000014B186844
:10272400704700BF0C00002070B500250C4E0D4C06
:10273400A41BA410A54209D101F052F900250A4EA8
:102744000A4CA41BA410A54205D170BD56F825302F
:1027540098470135EEE756F8253098470135F2E7FA
:102764004C3C00084C3C00084C3C0008503C000821
:1027740003460244934200D1704703F8011BF9E772
:102784000EB44FF4017230B59CB01FAC54F8045B26
:10279400ADF8142002900690FDF742FD0B4B039018
:1027A4000B9300230F9314934FF6FF73079008487D
:1027B400ADF816302A46234602A90068019400F0B9
:1027C400EFF91CB0BDE8304003B07047D9270008CA
:1027D4000C0000200020704730B5141E05469BB045
:1027E400184605DA8B234FF0FF302B601BB030BD49
:1027F4004FF40273ADF80C300CBF234604F1FF33E1
:10280400029305934FF6FF7300910491ADF80E30D7
:1028140002461E9B6946284600F074F8431CBCBF60
:102824008B232B60002CE1D00022009B1A70DDE783
:1028340007B5009313460A46014603480068FFF7AC
:10284400CBFF03B05DF804FB0C0000202DE9F0473A
:102854008E6882469E420C469146984635D88A89AF
:1028640012F4906F31D00223256809696F1A6569E3
:1028740005EB450595FBF3F508F101033B449D4247
:1028840038BF1D46530531D5294600F0FDFF0646E5
:1028940050B90C23CAF80030A3894FF0FF3043F03D
:1028A4004003A381BDE8F0873A46216900F07AFF2E
:1028B400A38923F4906343F08003A38126613E44FB
:1028C400266046466561ED1BA560464528BF464621
:1028D40049463246206800F070FFA36800209B1B25
:1028E400A36023681E442660BDE8F0872A4601F0F1
:1028F40029F806460028E1D12169504600F078FF06
:10290400C7E700002DE9F04F9DB003938B89804603
:102914001C060D4616460FD50B696BB9402100F015
:10292400B3FF2860286128B90C23C8F800304FF0A1
:10293400FF30C4E040236B610023099320238DF80A
:10294400293030234FF0010B8DF82A3037463C46AE
:1029540014F8013B002B3CD1B7EB060A0BD05346CD
:10296400324629464046FFF771FF013000F0A2804D
:10297400099B534409933B78002B00F09B80002370
:102984004FF0FF3204930793059206938DF853306A
:102994001A9305222178504800F0F6FE671C049B28
:1029A400D8B9D90644BF20228DF853201A0744BF52
:1029B4002B228DF8532022782A2A16D000210A20AF
:1029C400079A27463B780134303B092B50D9C9B1CB
:1029D40011E0252BC0D02746B9E73F4A3C46801A70
:1029E4000BFA00F018430490D3E7039A111D126800
:1029F4000391002A01DB079204E0524243F00203F0
:102A0400079204933B782E2B0DD17B78791C2A2BCB
:102A140032D1039B02371A1D1B680392002BB8BFE7
:102A24004FF0FF3305932D4C03223978204600F0F4
:102A3400ABFE38B14023001B03FA00F0049B0137BE
:102A4400034304933978062225487E1C8DF8281008
:102A540000F09AFE002835D0224BFBB9039B0733C4
:102A640023F0070308330393099B4B4409936DE751
:102A740000FB02320121A4E700230A24184605932F
:102A84000F463A780131303A092A03D9002BCAD0CB
:102A94000590C8E704FB00200123F1E703AB009392
:102AA4002A46114B04A94046AFF30080B0F1FF3F22
:102AB4008146D9D1AB895B063FF539AF09981DB082
:102AC400BDE8F08F03AB00932A46074B04A94046A8
:102AD40000F032FAEAE700BF903A0008963A00089C
:102AE4009A3A0008000000005128000838B54B1C31
:102AF400144603D14FF0FF35284638BD9389CDB233
:102B040023F020039381536B52688BB1A36B9A42D9
:102B140008DA23685A1E226003F8015C63680133F3
:102B24006360E9E7214600F0D3FD0028F1D0E1E736
:102B34002169236851B1994208D213F8011C8D42CE
:102B440004D1013B013223606260D5E7E36304F101
:102B5400440363630323A3632346226403F8465FA9
:102B640023600123DCE710B50C46496B69B104F11D
:102B74004403994201D000F03BFE0020236C6063C3
:102B8400636013B1E36B236010BD23694FF0FF3022
:102B9400236000236360A38943F02003A38110BD55
:102BA4002DE9F04FADF5257D0193002306460C4633
:102BB40092460A27469347939F4B0DF10C08A29324
:102BC4009E4BDFF87C92CDF82081A3939AF80030D5
:102BD400002B00F02F8100F0B7FD9AF800B05844A4
:102BE400437813F0080343D1BBF1250F0AF1010523
:102BF40040F09980459343939AF801302A2B03D1EE
:102C040010230AF1020543932978AA46A1F1300260
:102C1400092A05F1010541D90322894800F0B4FDD0
:102C240038B1A0EB09030120AA469840439B1843FE
:102C340043909AF800300AF10105672B4AD8652BB6
:102C440080F0B780472B2FD8452B80F0B280002B23
:102C540000F08280252B66D003234497499345E0F6
:102C640047990133013147916168236001396160FB
:102C74006368002B0BDD00F067FD236819780844B6
:102C840041780D07ECD40AF10105AA469EE7A39BFF
:102C94002146304698470028EDD0F4E7459B07FBD2
:102CA4000313303B4593AFE75B2B61D00CD8582B13
:102CB400D2D1439A42F400724392102244926F2B71
:102CC400B4BF0323042310E0632B5CD0642BC3D173
:102CD4004497F4E7702B42D01DD86E2B59D043D8BB
:102CE400692BB9D100234493032349936368002BD0
:102CF40061DD439B59066FD5499B022B7CDC01ABFC
:102D0400224643A9304600F037FA012800F09280A9
:102D14000228BAD11DE0752BDAD0782BC9D0732BD9
:102D24009AD10223E1E76368002B0CDD23681A784B
:102D340093457FD1013362682360479B013A013395
:102D440062604793A1E7A39B214630469847002839
:102D5400ECD04698002863D14FF0FF3066E0439AE8
:102D640042F020024392A4E7082344930423BCE7DF
:102D74002946404600F05AFB439B054643F0400376
:102D840043930123B1E7439B43F040034393002360
:102D9400ABE7439AD0063FF578AF12F0010F019AE2
:102DA400479B02F104010191126814BF1380136060
:102DB4006BE7052399E7A39B2146304698470028F3
:102DC40097D0C6E7479A013247926268013A002ACF
:102DD40062600ADD0133236000F0B6FC23681A78D0
:102DE400104442781207EDD486E7A39B214630466F
:102DF40098470028F0D0ACE7042B06DC01AB224650
:102E040043A9304600F01CFA7FE70E4B002B3FF439
:102E14003CAF01AB224643A93046AFF3008074E7D0
:102E2400A38913F0400F18BF4FF0FF300DF5257D37
:102E3400BDE8F08F4698F9E7F12A00086B2B0008EB
:102E4400963A0008000000002DE9F04791461F461D
:102E54008A680B6906469342B8BF1346C9F8003026
:102E640091F843200C46DDF8208012B10133C9F8F3
:102E740000302368990642BFD9F800300233C9F8FC
:102E84000030256815F0060507D104F1190AE36836
:102E9400D9F800209B1A9D422ADB94F8433022681B
:102EA400003318BF012392062FD404F1430239469C
:102EB4003046C047013022D02368E56803F006039A
:102EC400042B18BF0025D9F800204FF0000908BFD3
:102ED400AD1AA368226908BF25EAE5759342C4BF09
:102EE4009B1AED181A344D451BD10020BDE8F0871C
:102EF4000123524639463046C047013003D14FF0D2
:102F0400FF30BDE8F0870135C1E73020E11881F8D2
:102F140043005A1C94F845102244023382F84310AB
:102F2400C3E70123224639463046C0470130E6D084
:102F340009F10109D7E700002DE9F04317460A7E9D
:102F440085B06E2A984606460C460C9B01F1430E4A
:102F540000F0BC801AD8632A2ED00AD8002A00F0C8
:102F6400C880582A00F08A8004F1420584F842207F
:102F74002AE0642A01D0692AF6D121681A6811F07E
:102F8400800F23D0111D1960136827E0732A00F005
:102F9400B48008D86F2A2AD0702AE5D10A6842F092
:102FA40020020A6003E0752A21D0782ADCD1782235
:102FB4006F4984F8452064E01A6801F14205111D47
:102FC4001960136884F842300123A3E011F0400F24
:102FD40002F104011960D7D0B2F90030002B03DAF2
:102FE4002D225B4284F8432062490A2217E02068BC
:102FF400196810F0800F03D0081D18600B6806E0F4
:1030040010F0400F01F104001860F7D00B886F2A0C
:1030140014BF0A2208225749002084F84300656837
:10302400002DA560C0F29C80206820F00400206080
:10303400002B3FD1002D40F095807546082A0BD116
:103044002368DA0708D5236962689A42DEBF302311
:1030540005F8013C05F1FF35AEEB05032361CDF81E
:1030640000803B4603AA21463046FFF7EDFE0130BF
:1030740055D14FF0FF3005B0BDE8F08381F845200D
:103084003C492268186812F0800F00F104051D60A5
:1030940001D0036802E05506FBD50388D00744BF7E
:1030A40042F0200222601BB9226822F02002226032
:1030B4001022B1E77546B3FBF2F002FB1033CB5C90
:1030C40005F8013D03460028F5D1B7E708681A68FA
:1030D40010F0800F496904D0101D1860136819603E
:1030E40007E010F0400F02F1040018601368F6D0F6
:1030F4001980002375462361B1E71A68111D196010
:10310400156800216268284600F03EFB08B1401BA8
:10311400606063682361002384F843309FE7236978
:103124002A4639463046C0470130A2D023689B075F
:1031340007D5002504F11909E368039A9B1A9D42F7
:1031440005DBE068039B9842B8BF184693E7012368
:103154004A4639463046C04701308AD00135EBE74C
:10316400002BA7D10B7804F1420584F8423065E7BF
:10317400B23A0008A13A00082DE9F04115468A68E0
:1031840080460C4632B98A69002A0CBF01224FF0EE
:10319400FF328A6000262268D1065FBF1A68111DBB
:1031A40019601768A369DBB1012B07D12B68626929
:1031B4001B78D35CA3B9002E31D106E0022B07D0D3
:1031C400002E2CD1A369012B29D10120BDE8F08167
:1031D40000F0BAFA2B681B78184443781B07EFD425
:1031E40023680136DA065EBF2B681B783B702A68B9
:1031F4006B6802F101022A60A26803F1FF3302F155
:10320400FF326B6058BF0137A26042B1002BC9DCAA
:10321400D4F880312946404698470028C2D0236814
:1032240013F0100305D1E2680132E260A26902B131
:103234003B70236900201E442661BDE8F081000034
:103244002DE9F04F0C469A46744B87B083461646D8
:1032540093E8070003ABA76883E80700704BA169F4
:10326400704A04F11C09032918BF1A467B1EB3F5E2
:10327400AE7F84BF40F25D13A360236888BF6FF400
:10328400AE7543F45063236098BF00274B464FF05C
:103294000008009288BF7F193168019303AB53F88B
:1032A40028000222097800F06FFA019B28B3B8F1D4
:1032B400010F56D162682AB908226260226842F47A
:1032C40000722260226822F4A0622260A268511E69
:1032D400A16092B132685D1C511C316012781A7081
:1032E4007368013B002B736006DCD4F880313146EF
:1032F40058469847002877D12B4608F10108B8F1C1
:10330400030FC9D162680AB90A2262606268464939
:103314006069891A019300F089F8019B4FF0000855
:103324001D46A368002B39D0316860690A78805C37
:10333400002833D0302A226821D110051FD508F186
:10334400010817B10133013FA3607368013B002BEF
:1033540073601CDD336801333360A368013BA360F1
:10336400DFE7B8F1020FB1D1226802F4C061B1F510
:10337400007FC2D1102142F480726160A5E722F47B
:10338400106222600B78013505F8013CDDE7D4F8C2
:1033940080313146584698470028DED02368D90545
:1033A4000CD54D4508D915F8011C6F1ED4F87C3195
:1033B4003246584698473D464D452CD0226812F077
:1033C40010021ED12A70636849465846009EB047D1
:1033D4002268DAF8003012F0200F08D01A1DCAF85B
:1033E40000201B68186009E04FF00008D6E7D207F8
:1033F400F4D51A1DCAF800201B681880E36801334D
:10340400E3600020A5EB0905A8442569454425612E
:1034140007B0BDE8F08F0120FAE700BF6C3A00085E
:10342400B136000891350008D33A000870B50B781E
:10343400441E5E2B13BF4A1C8A1C4B78002108BF14
:10344400012100F1FF0504F8011FA542FBD113B9C6
:10345400013A104670BD81F001041146C4540D7840
:103464004A1C2D2D06D05D2DF3D00DB90A46F0E788
:103474002B46F2E74E785D2EFAD0B342F8DC0231E7
:1034840001339E42C454FBDCE9E72DE9F84F804642
:10349400894692461F468B465D460A9815F8014BAD
:1034A40000F04FF92044467816F008060BD12D2C75
:1034B4000BD101262C780BF1020567B1102F14D122
:1034C400302C0AD011E0AB46E6E72B2C04BF2C7855
:1034D4000BF10205F1E7302C27D12B7803F0DF0341
:1034E400582B4BD110276C780235002E0CBF6FF08F
:1034F40000414FF000410022B1FBF7FE104607FBEC
:103504001E1CA4F13003092B11D81C46A7421DDD53
:10351400531C07D0864516D301D1A44513DB0122E1
:1035240000FB074015F8014BEBE70A27DDE7A4F1A0
:103534004103192B01D8373CE8E7A4F16103192BA7
:1035440004D8573CE2E74FF0FF32EBE7531C08D1B5
:1035540022230846C8F80030BAF1000F07D1BDE8AD
:10356400F88F06B14042BAF1000F0CD022B1013DF0
:10357400CAF80050BDE8F88F4D46F9E73024002F13
:10358400B3D10827B1E7BDE8F88F000037B5064C82
:10359400064D2468246A002C08BF2C460094FFF7CB
:1035A40074FF03B030BD00BF0C0000207000002089
:1035B4002DE9F0478046894692461E460F463D4611
:1035C400089815F8014B00F0BCF82044437813F038
:1035D40008030AD12D2C0AD101232C78BD1C5EB11D
:1035E400102E13D1302C09D010E02F46E7E72B2CF6
:1035F40004BF2C78BD1CF2E7302C25D12A7802F0C8
:10360400DF02582A4AD110266C7802354FF0FF3178
:10361400B1FBF6F1002706FB01FE38466FEA0E0EF9
:10362400A4F13002092A11D81446A6421DDD002F48
:1036340018DB814216D301D1A64513DB012700FB19
:10364400064015F8014BEBE70A26DFE7A4F1410237
:10365400192A01D8373CE8E7A4F16102192A04D8F1
:10366400573CE2E74FF0FF37EBE7002F09DA22235C
:103674004FF0FF30C8F80030BAF1000F07D1BDE8B1
:10368400F08703B14042BAF1000F0CD027B1013DDD
:10369400CAF80050BDE8F0874D46F9E73024002E03
:1036A400B4D10826B2E7BDE8F087000037B5064C70
:1036B400064D2468246A002C08BF2C460094FFF7AA
:1036C40077FF03B030BD00BF0C0000207000002065
:1036D4002DE9F0410C46496B04F1440399421CD195
:1036E4004FF4806100F0D0F818B94FF0FF30BDE816
:1036F400F0814FF48063A36394F84630606380F8EC
:10370400FF3394F8453000F2FD30437094F84430B0
:10371400037020600020BDE8F081A66B77003A4674
:1037240000F010F905460028DFD000EB060801463A
:103734003246404600F036F8C4F800806563A7635B
:10374400E8E7D0F8EC007047044B054A1B681B6A95
:10375400002B08BF1346D3F8EC0070470C00002080
:103764007000002082B001B901A942B14BB11378B5
:103774000B601278101C18BF012002B0704710466D
:10378400FBE76FF00100F8E710B5C9B202449042BC
:10379400034601D1002010BD1C7801308C42F6D1C3
:1037A400184610BD10B5431E0A44914200D110BD05
:1037B40011F8014B03F8014FF7E7884210B501EB0C
:1037C400020303D8421E99420CD110BD9842F9D28B
:1037D4008118D21AD34200D110BD13F8014D01F85B
:1037E400014DF7E711F8014B02F8014FEBE7000038
:1037F40038B50546002943D051F8043C0C1F002B72
:10380400B8BFE41800F0E1F81E4A1368104633B953
:10381400636014602846BDE8384000F0D7B8A3427E
:103824000BD921686218934201BF1A685B68521869
:10383400226063600460EDE713465A680AB1A2424D
:10384400FAD919685818A0420BD1206801445818B5
:1038540082421960DED110685268014419605A60CE
:10386400D8E702D90C232B60D4E7206821188A42B8
:1038740001BF116852680918216062605C60C9E781
:1038840038BD00BFFC02002070B5CD1C25F0030537
:1038940008350C2D38BF0C25002D064601DBA94246
:1038A40003D90C233360002070BD00F08EF8234A46
:1038B4001468214691B9224C23681BB9304600F0A4
:1038C40067F820602946304600F062F8431C26D190
:1038D4000C233046336000F079F8E4E70B685B1B97
:1038E4001AD40B2B0FD90B60CC18CD50304600F0F6
:1038F4006DF804F10B00231D20F00700C31A1BD040
:103904005A42E25070BD8C420BBF63684B6813602F
:10391400636018BF0C46E9E70C464968CAE7C41C53
:1039240024F00304A04205D0211A304600F030F8F8
:103934000130CDD02560D9E770BD00BFFC02002066
:1039440000030020F8B5074614460E4621B9114677
:10395400BDE8F840FFF798BF22B9FFF749FF2546B5
:103964002846F8BD00F033F884420FD92146384682
:10397400FFF78AFF05460028F2D031462246FFF7BA
:1039840011FF31463846FFF733FFE9E73546E7E7ED
:1039940038B50023054C054608462360FEF766FE4D
:1039A400431C02D1236803B12B6038BD9C03002063
:1039B40049B1FF2A8BBF8A230A700360012088BFA4
:1039C4004FF0FF307047084670477047704751F812
:1039D400040C0028A0F10400BCBF0B58C0187047A9
:1039E400F8B500BFF8BC08BC9E467047F8B500BFE8
:0839F400F8BC08BC9E467047B8
:1039FC0002030405060708090A0B0C0D0E0F101024
:103A0C0001020000256400004861792064616E2089
:103A1C006469656E20637563000000006C656E2040
:103A2C00766920747269206261746B690000000011
:103A3C005472616E6720746861693A0044616E6704
:103A4C0020636F004B686F6E6720636F2064752076
:103A5C006C696575000000004D616E75616C00004D
:103A6C00D53A0008D83A0008DB3A000800000000FC
:103A7C000000000001020304060708090000000012
:103A8C0001020304232D302B2000686C4C0065666A
:103A9C006745464700303132333435363738394193
:103AAC0042434445460030313233343536373839A9
:103ABC0061626364656600412D46612D663839305C
:103ACC00313233343536375D002B2D0030300078F1
:103ADC005800000000000000000000000000000082
:103AEC0000000000000000000000000000000000CA
:103AFC0000000000000000000000000000000000BA
:103B0C0000000000000000000000000000000000A9
:103B1C000000000000000000000000000000000099
:103B2C000000000000000000000000000000000089
:103B3C00000000004300504F534958002E00002055
:103B4C002020202020202020282828282820202041
:103B5C0020202020202020202020202020202088F1
:103B6C001010101010101010101010101010100455
:103B7C0004040404040404040410101010101010A5
:103B8C004141414141410101010101010101010199
:103B9C0001010101010101010101101010101010AF
:103BAC004242424242420202020202020202020269
:103BBC000202020202020202020210101010200085
:103BCC0000000000000000000000000000000000E9
:103BDC0000000000000000000000000000000000D9
:103BEC0000000000000000000000000000000000C9
:103BFC0000000000000000000000000000000000B9
:103C0C0000000000000000000000000000000000A8
:103C1C000000000000000000000000000000000098
:103C2C000000000000000000000000000000000088
:103C3C000000000000000000000000000000000078
:043C4C000902000861
:043C5000E501000882
:103C540010000000010000000024F4001000002007
:103C640000000000003B0008203B0008E03A000888
:103C74000000000000000000000000000000000040
:103C84000000000000000000000000000000000030
:103C94000000000000000000000000000000000020
:103CA4000000000000000000000000000000000010
:103CB4000000000000000000000000000000000000
:103CC40043000000000000000000000000000000AD
:103CD40000000000000000000000000000000000E0
:103CE400430000000000000000000000000000008D
:103CF40000000000000000000000000000000000C0
:103D0400430000000000000000000000000000006C
:103D1400000000000000000000000000000000009F
:103D2400430000000000000000000000000000004C
:103D3400000000000000000000000000000000007F
:103D4400430000000000000000000000000000002C
:103D5400000000000000000000000000000000005F
:103D6400430000000000000000000000000000000C
:103D7400000000000000000000000000000000003F
:103D840043000000000000000000000000000000EC
:103D9400000000000000000000000000000000001F
:103DA400B539000869370008000000004A3B0008E4
:103DB400483B0008953A0008953A0008953A0008EF
:103DC400953A0008953A0008953A0008953A000893
:103DD400953A0008953A0008FFFFFFFFFFFFFFFF39
:103DE400FFFFFFFFFFFF000001004153434949006B
:103DF40000000000000000000000000000000000BF
:103E04000000000000000000000041534349490045
:103E1400000000000000000000000000000000009E
:0C3E240000000000000000000000000092
:04000005080026D5F4
:00000001FF
