:020000040800F2
:1000000000500020394B0008214A0008274A000808
:100010002D4A0008334A0008394A00080000000051
:100020000000000000000000000000003F4A00083F
:100030004B4A000800000000574A0008634A0008C5
:10004000814B0008814B0008814B0008814B000860
:10005000814B0008814B0008814B0008814B000850
:10006000814B0008814B0008814B0008814B000840
:10007000814B0008814B0008814B0008814B000830
:10008000814B0008814B0008814B0008814B000820
:10009000814B0008814B0008814B0008814B000810
:1000A000714A0008854A0008994A0008AD4A0008CC
:1000B000814B0008814B0008814B0008814B0008F0
:1000C000814B0008814B0008814B0008814B0008E0
:1000D000814B0008814B0008814B0008C14A000891
:1000E000814B0008814B0008814B00080000000094
:1000F0000000000000000000000000000000000000
:0C01000000000000000000005FF808F1A3
:10010C0010B5054C237833B9044B13B10448AFF345
:10011C0000800123237010BD70000020000000003F
:10012C004054000808B5034B1BB103490348AFF317
:10013C00008008BD0000000074000020405400083E
:10014C0080B500AF084A084B1B6843F010031360DE
:10015C00032000F01BFE0F2000F008F804F0E8FA72
:10016C000023184680BD00BF0020024080B582B03D
:10017C0000AF7860124B1A68124B1B7819464FF47B
:10018C007A73B3FBF1F3B2FBF3F3184600F033FED2
:10019C000346002B01D001230EE07B680F2B0AD8FD
:1001AC00002279684FF0FF3000F0FBFD064A7B68B7
:1001BC001360002300E0012318460837BD4680BDBC
:1001CC0008000020040000200000002080B400AFD4
:1001DC00054B1B781A46054B1B681344034A1360E6
:1001EC0000BFBD4680BC7047040000209800002072
:1001FC0080B400AF024B1B681846BD4680BC7047EC
:10020C009800002080B584B000AF7860FFF7F0FF55
:10021C00B8607B68FB60FB68B3F1FF3F05D0094B0E
:10022C001B781A46FB681344FB6000BFFFF7E0FF26
:10023C000246BB68D21AFB689A42F7D300BF10374C
:10024C00BD4680BD0400002080B586B000AF78604C
:10025C000023FB7500233B610023BB600023FB6084
:10026C007B68002B01D10123BEE07B689B68002BCF
:10027C007B689B6A002B09D17B680022DA627B6861
:10028C00002283F82420786804F084FA786800F05F
:10029C00C5FB0346FB757B689B6A03F01003002BC0
:1002AC0040F09980FB7D002B40F095807B689B6A29
:1002BC0023F4885323F0020343F002027B689A6212
:1002CC007B685A687B68DB691A437B681B7B5B0025
:1002DC001343BA681343BB607B689B68B3F5807F9C
:1002EC0003D07B689B68012B02D14FF4807300E034
:1002FC0000233A6913433B617B681B7D012B19D1A9
:10030C007B681B7B002B09D17B689B69013B5A03E3
:10031C003B69134343F400633B610BE07B689B6ACE
:10032C0043F020027B689A627B68DB6A43F001022F
:10033C007B68DA627B681B687A681268526822F400
:10034C0069413A690A435A607B681A687B681B6882
:10035C009968274B0B40B9680B4393607B689B688B
:10036C00B3F5807F03D07B689B68012B04D17B683D
:10037C001B69013B1B05FB607B681B687A68126874
:10038C00D26A22F47001FA680A43DA627B681B684D
:10039C009A68184B1340BA6893420BD17B680022C1
:1003AC00DA627B689B6A23F0030343F001027B68EB
:1003BC009A6218E07B689B6A23F0120343F01002E8
:1003CC007B689A627B68DB6A43F001027B68DA62C5
:1003DC000123FB7507E07B689B6A43F010027B6886
:1003EC009A620123FB75FB7D18461837BD4680BD0C
:1003FC00FDF7E1FFFE0E1FFF80B584B000AF786003
:10040C000023FB737B6893F82430012B01D102236A
:10041C0098E07B68012283F82420786800F0A4FA25
:10042C000346FB73FB7B002B40F087807B689B6A49
:10043C0023F4407323F0010343F480727B689A62C7
:10044C007B681B68414A934205D1414B5B6803F4BE
:10045C007023002B15D17B689B6A23F480127B6878
:10046C009A627B681B685B6803F48063002B26D060
:10047C007B689B6A23F4405343F480527B689A62F6
:10048C001DE07B689B6A43F480127B689A627B68F0
:10049C001B682F4A934204D07B681B682B4A9342FB
:1004AC000DD12B4B5B6803F48063002B07D07B686A
:1004BC009B6A23F4405343F480527B689A627B68B6
:1004CC009B6A03F48053002B06D07B68DB6A23F015
:1004DC0006027B68DA6202E07B680022DA627B68E3
:1004EC00002283F824207B681B686FF002021A60DC
:1004FC007B681B689B6803F46023B3F5602F13D1F2
:10050C007B681B68114A934205D1114B5B6803F45D
:10051C007023002B08D17B681B687A68126892687C
:10052C0042F4A0029A600CE07B681B687A6812683F
:10053C00926842F480129A6003E07B68002283F890
:10054C002420FB7B18461037BD4680BD0028014097
:10055C000024014090B587B000AF7860396000236B
:10056C007B610023FB6000233B61FFF741FE786158
:10057C007B681B689B6803F48073002B0BD07B6833
:10058C009B6A43F020027B689A627B68002283F8A6
:10059C0024200123D3E07B681B685B6803F4807321
:1005AC00002B31D17B681B68DB6A03F47003002BD2
:1005BC002AD121E03B68B3F1FF3F1DD03B68002BF3
:1005CC0007D0FFF715FE02467B69D21A3B689A42A8
:1005DC0012D97B681B681B6803F00203002B0BD13C
:1005EC007B689B6A43F004027B689A627B680022FA
:1005FC0083F824200323A2E07B681B681B6803F0AC
:10060C000203002BD6D070E04F4B1C68022001F087
:10061C0037FF0346B4FBF3F27B681B6819694B4B3D
:10062C000B40002B18D17B681B68D968484B0B40DA
:10063C00002B11D17B681B681969464B0B40002BB2
:10064C0008D17B681B68D968434B0B40002B01D148
:10065C00142320E029231EE07B681B6819693D4B9D
:10066C000B40002B06D17B681B68D9683A4B0B40BA
:10067C00002B0DD07B681B681969384B0B40002B85
:10068C0008D17B681B68D968344B0B40002B01D117
:10069C00542300E0FC2303FB02F33B6121E03B68A5
:1006AC00B3F1FF3F1AD03B68002B07D0FFF7A0FD3A
:1006BC0002467B69D21A3B689A420FD9FA683B69A9
:1006CC009A420BD27B689B6A43F004027B689A6265
:1006DC007B68002283F82420032330E0FB6801337D
:1006EC00FB60FA683B699A42D9D37B681B686FF050
:1006FC0012021A607B689B6A43F400727B689A62F0
:10070C007B681B689B6803F46023B3F5602F15D1DD
:10071C007B681B7B002B11D17B689B6A23F4807256
:10072C007B689A627B689B6A03F48053002B05D12B
:10073C007B689B6A43F001027B689A62002318462F
:10074C001C37BD4690BD00BF0800002024499224F0
:10075C00244992009224491292244900499224007F
:10076C0080B483B000AF78607B681B68DB6C184684
:10077C000C37BD4680BC704790B484B000AF786035
:10078C0039600023FB730023BB607B6893F8243033
:10079C00012B01D10223DCE07B68012283F82420A9
:1007AC003B685B68062B1CD87B6819687B681B68E8
:1007BC00586B3B685A6813469B001344053B1F2239
:1007CC0002FA03F3DB4318403B681C683B685A6829
:1007DC0013469B001344053B04FA03F303434B639A
:1007EC003CE03B685B680C2B1CD87B6819687B6809
:1007FC001B68186B3B685A6813469B001344233BD9
:10080C001F2202FA03F3DB4318403B681C683B6869
:10081C005A6813469B001344233B04FA03F3034327
:10082C000B631BE07B6819687B681B68D86A3B68A4
:10083C005A6813469B001344413B1F2202FA03F3F0
:10084C00DB4318403B681C683B685A6813469B00A6
:10085C001344413B04FA03F30343CB623B681B682C
:10086C00092B1CD97B6819687B681B68D8683B68A6
:10087C001A6813465B0013441E3B072202FA03F36B
:10088C00DB4318403B689C683B681A6813465B0066
:10089C0013441E3B04FA03F30343CB6019E07B685B
:1008AC0019687B681B6818693B681A6813465B00FB
:1008BC001344072202FA03F3DB4318403B689C689D
:1008CC003B681A6813465B00134404FA03F30343B2
:1008DC000B613B681B68102B03D03B681B68112B0A
:1008EC0032D17B681B681D4A934225D17B681B68FB
:1008FC009B6803F40003002B26D17B681B687A6885
:10090C001268926842F400029A603B681B68102BD4
:10091C001AD1134B1B68134AA2FB03239A0C1346E0
:10092C009B0013445B00BB6002E0BB68013BBB60F7
:10093C00BB68002BF9D107E07B689B6A43F020026F
:10094C007B689A620123FB737B68002283F8242066
:10095C00FB7B18461037BD4690BC70470024014005
:10096C000800002083DE1B4380B584B000AF7860A4
:10097C000023FB600023BB607B681B689B6803F053
:10098C000103012B40D07B681B687A68126892685F
:10099C0042F001029A601F4B1B681F4AA2FB032303
:1009AC009B0CBB6002E0BB68013BBB60BB68002BCF
:1009BC00F9D1FFF71DFCF8601FE0FFF719FC0246A8
:1009CC00FB68D31A022B18D97B681B689B6803F051
:1009DC000103012B11D07B689B6A43F010027B68EA
:1009EC009A627B68DB6A43F001027B68DA627B689F
:1009FC00002283F82420012307E07B681B689B6896
:100A0C0003F00103012BD8D1002318461037BD4643
:100A1C0080BD00BF0800002083DE1B4380B584B07E
:100A2C0000AF78600023FB607B681B689B6803F059
:100A3C000103012B2ED17B681B687A6812689268BF
:100A4C0022F001029A60FFF7D3FBF8601BE0FFF77E
:100A5C00CFFB0246FB68D31A022B14D97B681B68A8
:100A6C009B6803F00103012B0DD17B689B6A43F05B
:100A7C0010027B689A627B68DB6A43F001027B6838
:100A8C00DA62012307E07B681B689B6803F00103B3
:100A9C00012BDCD0002318461037BD4680BD00006A
:100AAC0090B587B000AF78600023FB750023FB6026
:100ABC007B6893F82430012B01D1022395E07B68ED
:100ACC00012283F824207868FFF7A8FF0346FB7502
:100ADC00FB7D002B40F084807B689B6A23F4885359
:100AEC0023F0020343F002027B689A62414B1C68BC
:100AFC00022001F0C5FC0346B4FBF3F35B00FB6082
:100B0C0002E0FB68013BFB60FB68002BF9D17868C5
:100B1C00FFF72AFF7B681B687A681268926842F0BC
:100B2C0008029A60FFF764FB38611BE0FFF760FB7B
:100B3C0002463B69D31A0A2B14D97B681B689B6845
:100B4C0003F00803002B0DD07B689B6A23F0120383
:100B5C0043F010027B689A627B68002283F82420A1
:100B6C00012342E07B681B689B6803F00803002BA1
:100B7C00DCD17B681B687A681268926842F00402C8
:100B8C009A60FFF735FB38611BE0FFF731FB02463B
:100B9C003B69D31A0A2B14D97B681B689B6803F03A
:100BAC000403002B0DD07B689B6A23F0120343F0E7
:100BBC0010027B689A627B68002283F82420012350
:100BCC0013E07B681B689B6803F00403002BDCD1EB
:100BDC007B689B6A23F0030343F001027B689A62F3
:100BEC007B68002283F82420FB7D18461C37BD4609
:100BFC0090BD00BF0800002080B485B000AF7860C5
:100C0C007B6803F00703FB600C4BDB68BB60BA68C6
:100C1C004FF6FF031340BB60FB681A02BB6813431B
:100C2C0043F0BF6343F40033BB60044ABB68D3603A
:100C3C0000BF1437BD4680BC704700BF00ED00E01C
:100C4C0080B400AF044BDB681B0A03F007031846A3
:100C5C00BD4680BC704700BF00ED00E080B483B09F
:100C6C0000AF0346FB7197F90730002B0BDB0849EB
:100C7C0097F907305B09FA7902F01F02012000FA9C
:100C8C0002F241F8232000BF0C37BD4680BC7047F0
:100C9C0000E100E080B483B000AF03463960FB7123
:100CAC0097F90730002B0ADB0D4997F907303A68A2
:100CBC00D2B21201D2B20B4483F800230AE00949E4
:100CCC00FB7903F00F03043B3A68D2B21201D2B2A3
:100CDC000B441A7600BF0C37BD4680BC704700BF72
:100CEC0000E100E000ED00E080B489B000AFF860F6
:100CFC00B9607A60FB6803F00703FB61FB69C3F121
:100D0C000703042B28BF0423BB61FB690433062BA8
:100D1C0002D9FB69033B00E000237B610122BB6924
:100D2C0002FA03F35A1EBB681A407B699A400121F0
:100D3C007B6901FA03F3591E7B680B401343184679
:100D4C002437BD4680BC704780B582B000AF786058
:100D5C007B68013BB3F1807F01D301230FE00A4A8A
:100D6C007B68013B53600F214FF0FF30FFF792FF80
:100D7C00054B00229A60044B07221A600023184688
:100D8C000837BD4680BD00BF10E000E080B582B0E2
:100D9C0000AF78607868FFF72FFF00BF0837BD46BB
:100DAC0080BD80B586B000AF0346B9607A60FB7336
:100DBC0000237B61FFF744FF78617A68B968786932
:100DCC00FFF792FF024697F90F3011461846FFF7CE
:100DDC0061FF00BF1837BD4680BD80B582B000AF43
:100DEC000346FB7197F907301846FFF737FF00BF32
:100DFC000837BD4680BD80B582B000AF786078689A
:100E0C00FFF7A2FF034618460837BD4680BD80B4E5
:100E1C0085B000AF78600023FB737B6893F82130BA
:100E2C00022B08D07B6804229A637B68002283F82B
:100E3C002020012320E07B681B687A681268126806
:100E4C0022F00E021A607B681B687A6812681268BE
:100E5C0022F001021A607B68DB6B7A68126C01214C
:100E6C0001FA02F25A607B68012283F821207B6828
:100E7C00002283F82020FB7B18461437BD4680BC2B
:100E8C007047000080B584B000AF78600023FB731E
:100E9C007B6893F82130022B05D07B6804229A637F
:100EAC000123FB7357E07B681B687A681268126831
:100EBC0022F00E021A607B681B687A68126812684E
:100ECC0022F001021A60264A7B681B681946254BE2
:100EDC0099422ED07B681B681946234B994226D029
:100EEC007B681B681946214B99421DD07B681B6897
:100EFC0019461F4B994214D07B681B6819461D4B31
:100F0C0099420BD07B681B6819461B4B994202D146
:100F1C004FF480130EE04FF080730BE04FF48033EE
:100F2C0008E04FF4805305E04FF4807302E0102387
:100F3C0000E0012353607B68012283F821207B6849
:100F4C00002283F820207B685B6B002B03D07B682E
:100F5C005B6B78689847FB7B18461037BD4680BDA5
:100F6C0000000240080002401C0002403000024019
:100F7C0044000240580002406C00024080B48BB028
:100F8C0000AF7860396000237B6200233B6227E16D
:100F9C0001227B6A02FA03F3FB613B681A68FB6966
:100FAC001340BB61BA69FB699A4240F016813B68F9
:100FBC005B68122B34D0122B0DD8022B2BD0022BAA
:100FCC0004D8002B31D0012B1CD048E0032B43D08C
:100FDC00112B1BD043E0894A934226D0874A934277
:100FEC0006D8874A934220D0864A93421DD036E0D9
:100FFC00854A934219D0854A934216D0844A93422B
:10100C0013D02CE03B68DB683B6228E03B68DB6874
:10101C0004333B6223E03B68DB6808333B621EE031
:10102C003B68DB680C333B6219E03B689B68002B28
:10103C0002D104233B6212E03B689B68012B05D173
:10104C0008233B627B68FA691A6108E008233B625B
:10105C007B68FA695A6102E000233B6200BFBB69FE
:10106C00FF2B01D87B6801E07B6804337B61BB6993
:10107C00FF2B02D87B6A9B0002E07B6A083B9B003B
:10108C003B617B691A680F213B6901FA03F3DB436F
:10109C001A40396A3B6901FA03F31A437B691A60F7
:1010AC003B685B6803F08053002B00F09680594A34
:1010BC00584B9B6943F001039361564B9B6903F0BA
:1010CC000103BB60BB68544A7B6A9B08023352F82D
:1010DC002330FB607B6A03F003039B000F2202FAB0
:1010EC0003F3DB43FA681340FB607B684B4A934283
:1010FC0013D07B684A4A93420DD07B68494A93428D
:10110C0007D07B68484A934201D1032306E00423AD
:10111C0004E0022302E0012300E000237A6A02F0DB
:10112C00030292009340FA681343FB603A497B6ACE
:10113C009B080233FA6841F823203B685B6803F490
:10114C008033002B06D03949384B1A68BB691343DE
:10115C000B6006E03549354B1A68BB69DB4313401D
:10116C000B603B685B6803F40033002B06D02F49FF
:10117C002E4B5A68BB6913434B6006E02B492B4B33
:10118C005A68BB69DB4313404B603B685B6803F4F4
:10119C008013002B06D02549244B9A68BB69134356
:1011AC008B6006E02149214B9A68BB69DB431340F5
:1011BC008B603B685B6803F40013002B06D01B4963
:1011CC001A4BDA68BB691343CB6006E01749174B1F
:1011DC00DA68BB69DB431340CB607B6A01337B620B
:1011EC003B681A687B6A22FA03F3002B7FF4D0AEBB
:1011FC0000BF2C37BD4680BC704700BF00002110DB
:10120C00000011100000121000003110000032100C
:10121C0000002210001002400000014000080140B4
:10122C00000C01400010014000140140000401407A
:10123C0080B483B000AF78600B467B8013467B7024
:10124C007B78002B03D07A887B681A6103E07B885B
:10125C001A047B681A6100BF0C37BD4680BC70470E
:10126C0090B585B000AF78607B68002B01D101236D
:10127C001FE17B6893F83D30DBB2002B06D17B6815
:10128C00002283F83C20786803F0C0FA7B682422A3
:10129C0083F83D207B681B687A681268126822F01C
:1012AC0001021A607B681B687A681268126842F443
:1012BC0000421A607B681B687A681268126822F414
:1012CC0000421A6000F0E0FFF8607B685B687B4AC4
:1012DC00934207D8FB687A4A934294BF01230023B8
:1012EC00DBB206E0FB68774A934294BF01230023EC
:1012FC00DBB2002B01D00123DBE0FB68724AA2FBBE
:10130C0003239B0CBB607B681B687A68126852686D
:10131C0022F03F01BA680A435A607B681A687B68FE
:10132C001B681B6A23F03F017B685B686348834240
:10133C0002D8BB68013309E0BB684FF4967000FB20
:10134C0003F36248A0FB03039B0901330B431362B5
:10135C007B6818687B681B68DB6923F44F4222F0BA
:10136C00FF027B685B6855498B420DD8FB68591EA0
:10137C007B685B685B00B1FBF3F30133C3F30B03D6
:10138C00042B38BF04234FE07B689B68002B11D1E2
:10139C00FB685C1E7B6859680B465B000B44B4FB16
:1013AC00F3F30133C3F30B03002B0CBF0123002316
:1013BC00DBB212E0FB685C1E7B6859680B469B0035
:1013CC000B4499000B44B4FBF3F30133C3F30B034D
:1013DC00002B0CBF01230023DBB2002B01D0012317
:1013EC0022E07B689B68002B0ED1FB685C1E7B683F
:1013FC0059680B465B000B44B4FBF3F30133C3F3A6
:10140C000B0343F400430FE0FB685C1E7B685968D8
:10141C000B469B000B4499000B44B4FBF3F30133D4
:10142C00C3F30B0343F440431343C3617B681B6852
:10143C007A681268126822F0C0017A68D0697A68FA
:10144C00126A02430A431A607B681A687B681B683D
:10145C009B6823F4034323F0FF03796808697968D8
:10146C00C96801430B4393607B681B687A681268F8
:10147C00D26822F0FF017A6850697A689269024357
:10148C000A43DA607B681B687A681268126842F05B
:10149C0001021A607B6800221A647B68202283F8A0
:1014AC003D207B6800221A637B68002283F83E2073
:1014BC00002318461437BD4690BD00BFA08601001E
:1014CC007F841E00FF083D0083DE1B43D34D62105A
:1014DC0080B588B002AFF8607A601A460B467B8103
:1014EC0013463B81FEF784FE7861FB6893F83D3030
:1014FC00DBB2202B40F0E0807B69009319230122A2
:10150C007049F86800F064F90346002B01D00223FF
:10151C00D3E0FB6893F83C30012B01D10223CCE0E3
:10152C00FB68012283F83C20FB681B681B6803F0F6
:10153C000103012B07D0FB681B68FA68126812685C
:10154C0042F001021A60FB681B68FA6812681268A4
:10155C0022F400621A60FB68212283F83D20FB68AC
:10156C00102283F83E20FB6800221A64FB687A681C
:10157C005A62FB683A895A85FB685B8D9AB2FB68A4
:10158C001A85FB68504ADA6279897B693A6AF8688D
:10159C0000F09CF80346002B01D001238DE00023C2
:1015AC003B61FB681B685B693B61FB681B689B6963
:1015BC003B613B6966E07A69396AF86800F0DEF9EC
:1015CC000346002B0DD0FB681B6C042B07D1FB686A
:1015DC001B68FA681268126842F400721A600123E0
:1015EC006BE0FB681B68FA68526A12781A61FB6838
:1015FC005B6A5A1CFB685A62FB685B8D9BB2013BB1
:10160C009AB2FB685A85FB681B8D013B9AB2FB684A
:10161C001A85FB681B685B6903F00403042B1BD160
:10162C00FB681B8D002B17D0FB681B68FA68526A8D
:10163C0012781A61FB685B6A5A1CFB685A62FB6879
:10164C005B8D9BB2013B9AB2FB685A85FB681B8D84
:10165C00013B9AB2FB681A857A69396AF86800F01E
:10166C00CEF90346002B0DD0FB681B6C042B07D165
:10167C00FB681B68FA681268126842F400721A6000
:10168C0001231AE0FB681B8D002B94D1FB681B68AF
:10169C00FA681268126842F400721A60FB68202221
:1016AC0083F83D20FB68002283F83E20FB68002273
:1016BC0083F83C20002300E0022318461837BD466F
:1016CC0080BD00BF020010000000FFFF80B588B095
:1016DC0002AFF8607A603B600B467B81FB68DB6A8B
:1016EC007B617B69082B06D07B69012B03D07B695E
:1016FC0013F5803F08D1FB681B68FA681268126802
:10170C0042F480721A600BE0FB681B6B122B07D142
:10171C00FB681B68FA681268126842F480721A60DF
:10172C003B6800937B6800224FF00111F86800F0D1
:10173C004FF80346002B0DD0FB681B681B6803F4A5
:10174C008073B3F5807F03D1FB684FF400721A6489
:10175C00032334E0FB681B69B3F5804F07D1FB68AA
:10176C001B687A89D2B202F0FE021A611BE0FB6898
:10177C001B687A89D211D2B202F00602D2B262F0A0
:10178C000F02D2B21A613B687A680F49F86800F010
:10179C0076F80346002B01D0012310E0FB681B6890
:1017AC007A89D2B21A613B687A680849F86800F005
:1017BC0066F80346002B01D0012300E000231846F5
:1017CC001837BD4680BD00BF0800010002000100B3
:1017DC0080B584B000AFF860B9603B601346FB7114
:1017EC0025E03B68B3F1FF3F21D0FEF701FD024637
:1017FC00BB69D21A3B689A4202D83B68002B16D1BF
:10180C00FB6800221A63FB68202283F83D20FB68EA
:10181C00002283F83E20FB681B6C43F02002FB681F
:10182C001A64FB68002283F83C20012323E0BB6888
:10183C001B0CDBB2012B0DD1FB681B685B69DA4317
:10184C00BB6813409BB2002B0CBF01230023DBB2FF
:10185C001A460CE0FB681B689B69DA43BB681340B3
:10186C009BB2002B0CBF01230023DBB21A46FB7981
:10187C009A42B6D0002318461037BD4680BD80B5BD
:10188C0084B000AFF860B9607A603B6051E0FB68EF
:10189C001B685B6903F48063B3F5806F23D1FB682D
:1018AC001B68FA681268126842F400721A60FB68CE
:1018BC001B686FF480625A61FB6800221A63FB6834
:1018CC00202283F83D20FB68002283F83E20FB6831
:1018DC001B6C43F00402FB681A64FB68002283F85B
:1018EC003C20012346E07B68B3F1FF3F21D0FEF79B
:1018FC007FFC02463B68D21A7B689A4202D87B680E
:10190C00002B16D1FB6800221A63FB68202283F897
:10191C003D20FB68002283F83E20FB681B6C43F0E3
:10192C002002FB681A64FB68002283F83C20012328
:10193C0020E0BB681B0CDBB2012B0CD1FB681B68D5
:10194C005B69DA43BB6813409BB2002B14BF0123C5
:10195C000023DBB20BE0FB681B689B69DA43BB68B6
:10196C0013409BB2002B14BF01230023DBB2002BCE
:10197C008DD1002318461037BD4680BD80B584B08C
:10198C0000AFF860B9607A602DE0F86800F078F884
:10199C000346002B01D001232DE0BB68B3F1FF3FC0
:1019AC0021D0FEF725FC02467B68D21ABB689A420E
:1019BC0002D8BB68002B16D1FB6800221A63FB68A7
:1019CC00202283F83D20FB68002283F83E20FB6830
:1019DC001B6C43F02002FB681A64FB68002283F83E
:1019EC003C20012307E0FB681B685B6903F0800364
:1019FC00802BCAD1002318461037BD4680BD80B558
:101A0C0084B000AFF860B9607A602DE0F86800F03F
:101A1C0037F80346002B01D001232DE0BB68B3F14E
:101A2C00FF3F21D0FEF7E4FB02467B68D21ABB686D
:101A3C009A4202D8BB68002B16D1FB6800221A63AD
:101A4C00FB68202283F83D20FB68002283F83E20AF
:101A5C00FB681B6C43F02002FB681A64FB680022D5
:101A6C0083F83C20012307E0FB681B685B6903F0EB
:101A7C000403042BCAD1002318461037BD4680BD81
:101A8C0080B483B000AF78607B681B685B6903F43B
:101A9C008063B3F5806F1BD17B681B686FF4806229
:101AAC005A617B6800221A637B68202283F83D20F0
:101ABC007B68002283F83E207B681B6C43F0040299
:101ACC007B681A647B68002283F83C20012300E0C9
:101ADC00002318460C37BD4680BC704780B586B0D5
:101AEC0000AF78607B68002B01D101236CE27B682E
:101AFC001B6803F00103002B00F08780924B5B689E
:101B0C0003F00C03042B0CD08F4B5B6803F00C031D
:101B1C00082B12D18C4B5B6803F48033B3F5803FF8
:101B2C000BD1894B1B6803F40033002B6CD07B6802
:101B3C005B68002B68D1012346E27B685B68B3F5D8
:101B4C00803F06D1804A804B1B6843F4803313607E
:101B5C002EE07B685B68002B0CD17B4A7A4B1B68B0
:101B6C0023F480331360784A774B1B6823F480236B
:101B7C0013601DE07B685B68B3F5A02F0CD1724A33
:101B8C00714B1B6843F4802313606F4A6E4B1B68C8
:101B9C0043F4803313600BE06B4A6B4B1B6823F4EC
:101BAC0080331360684A684B1B6823F480231360EE
:101BBC007B685B68002B13D0FEF71AFB386108E0DA
:101BCC00FEF716FB02463B69D31A642B01D903239B
:101BDC00FAE15D4B1B6803F40033002BF0D014E0EA
:101BEC00FEF706FB386108E0FEF702FB02463B6994
:101BFC00D31A642B01D90323E6E1534B1B6803F47E
:101C0C000033002BF0D100E000BF7B681B6803F0B1
:101C1C000203002B63D04C4B5B6803F00C03002BCE
:101C2C000BD0494B5B6803F00C03082B1CD1464BC3
:101C3C005B6803F48033002B16D1434B1B6803F015
:101C4C000203002B05D07B681B69012B01D00123FB
:101C5C00BAE13D493C4B1B6823F0F8027B685B6999
:101C6C00DB0013430B603AE07B681B69002B20D030
:101C7C00364B01221A60FEF7BBFA386108E0FEF71A
:101C8C00B7FA02463B69D31A022B01D903239BE115
:101C9C002D4B1B6803F00203002BF0D02A492A4B72
:101CAC001B6823F0F8027B685B69DB0013430B6055
:101CBC0015E0264B00221A60FEF79AFA386108E00C
:101CCC00FEF796FA02463B69D31A022B01D903237D
:101CDC007AE11D4B1B6803F00203002BF0D17B68EB
:101CEC001B6803F00803002B3AD07B689B69002B20
:101CFC0019D0174B01221A60FEF77AFA386108E006
:101D0C00FEF776FA02463B69D31A022B01D903235C
:101D1C005AE10D4B5B6A03F00203002BF0D001205B
:101D2C0000F0DAFA1CE00A4B00221A60FEF760FAA7
:101D3C0038610FE0FEF75CFA02463B69D31A022BBE
:101D4C0008D9032340E100BF0010024000004242CA
:101D5C00800442429E4B5B6A03F00203002BE9D1E4
:101D6C007B681B6803F00403002B00F0A6800023A3
:101D7C00FB75974BDB6903F08053002B0DD1944A14
:101D8C00934BDB6943F08053D361914BDB6903F0D8
:101D9C008053BB60BB680123FB758E4B1B6803F43F
:101DAC008073002B18D18B4A8A4B1B6843F48073C9
:101DBC001360FEF71DFA386108E0FEF719FA0246C7
:101DCC003B69D31A642B01D90323FDE0814B1B68BB
:101DDC0003F48073002BF0D07B68DB68012B06D1F9
:101DEC007B4A7B4B1B6A43F0010313622DE07B683B
:101DFC00DB68002B0CD1764A754B1B6A23F0010370
:101E0C001362734A724B1B6A23F0040313621CE0C7
:101E1C007B68DB68052B0CD16D4A6D4B1B6A43F05C
:101E2C00040313626A4A6A4B1B6A43F00103136290
:101E3C000BE0674A664B1B6A23F001031362644A8A
:101E4C00634B1B6A23F0040313627B68DB68002B73
:101E5C0015D0FEF7CDF938610AE0FEF7C9F9024654
:101E6C003B69D31A41F28832934201D90323ABE088
:101E7C00574B1B6A03F00203002BEED014E0FEF765
:101E8C00B7F938610AE0FEF7B3F902463B69D31A99
:101E9C0041F28832934201D9032395E04C4B1B6AE3
:101EAC0003F00203002BEED1FB7D012B05D1484A38
:101EBC00474BDB6923F08053D3617B68DB69002BD4
:101ECC0000F08180424B5B6803F00C03082B61D05F
:101EDC007B68DB69022B46D13F4B00221A60FEF770
:101EEC0087F9386108E0FEF783F902463B69D31A9B
:101EFC00022B01D9032367E0354B1B6803F00073F9
:101F0C00002BF0D17B681B6AB3F5803F08D13049B8
:101F1C002F4B5B6823F400327B689B6813434B6048
:101F2C002B482B4B5B6823F474127B68196A7B6813
:101F3C005B6A0B4313434360274B01221A60FEF785
:101F4C0057F9386108E0FEF753F902463B69D31A9A
:101F5C00022B01D9032337E01D4B1B6803F00073E0
:101F6C00002BF0D02FE01C4B00221A60FEF740F93A
:101F7C00386108E0FEF73CF902463B69D31A022BA4
:101F8C0001D9032320E0124B1B6803F00073002BD4
:101F9C00F0D118E07B68DB69012B01D1012313E040
:101FAC000B4B5B68FB60FB6803F480327B681B6A3D
:101FBC009A4206D1FB6803F470127B685B6A9A4202
:101FCC0001D0012300E0002318461837BD4680BD20
:101FDC0000100240007000406000424280B584B0A6
:101FEC0000AF786039607B68002B01D10123D0E011
:101FFC006A4B1B6803F007023B689A4210D2674990
:10200C00664B1B6823F007023B6813430B60634B62
:10201C001B6803F007023B689A4201D00123B8E029
:10202C007B681B6803F00203002B20D07B681B68C5
:10203C0003F00403002B05D0594A594B5B6843F459
:10204C00E06353607B681B6803F00803002B05D02A
:10205C00534A534B5B6843F4605353605049504BA5
:10206C005B6823F0F0027B689B6813434B607B68D2
:10207C001B6803F00103002B40D07B685B68012BCD
:10208C0007D1474B1B6803F40033002B15D10123F8
:10209C007FE07B685B68022B07D1414B1B6803F028
:1020AC000073002B09D1012373E03D4B1B6803F037
:1020BC000203002B01D101236BE03949384B5B68DB
:1020CC0023F003027B685B6813434B60FEF790F8C8
:1020DC00F8600AE0FEF78CF80246FB68D31A41F26E
:1020EC008832934201D9032353E02D4B5B6803F0F4
:1020FC000C027B685B689B009A42EBD1274B1B68F8
:10210C0003F007023B689A4210D92449234B1B6801
:10211C0023F007023B6813430B60204B1B6803F052
:10212C0007023B689A4201D0012332E07B681B68AE
:10213C0003F00403002B08D01949194B5B6823F4F6
:10214C00E0627B68DB6813434B607B681B6803F0C1
:10215C000803002B09D01249114B5B6823F4605221
:10216C007B681B69DB0013434B6000F021F80146D0
:10217C000B4B5B681B0903F00F030A4AD35C21FA73
:10218C0003F3094A1360094B1B681846FDF7EEFF71
:10219C00002318461037BD4680BD00BF002002400A
:1021AC000010024098540008080000200000002095
:1021BC0090B48AB000AF2A4B3C1D0FCB84E80F00C3
:1021CC00284B1B883B800023FB610023BB61002351
:1021DC007B6200237B6100233B62234B5B68FB61CA
:1021EC00FB6903F00C03042B02D0082B03D02DE069
:1021FC001E4B3B622DE0FB699B0C03F00F0307F1B8
:10220C002802134413F8243C7B61FB6903F48033EC
:10221C00002B13D0144B5B685B0C03F0010307F12C
:10222C002802134413F8283CBB617B690F4A02FB5C
:10223C0003F2BB69B2FBF3F37B6204E07B690C4AEB
:10224C0002FB03F37B627B6A3B6202E0074B3B625F
:10225C0000BF3B6A18462837BD4690BC704700BF8C
:10226C0058540008685400080010024000127A000C
:10227C0000093D0080B400AF024B1B681846BD46F8
:10228C0080BC70470800002080B500AFFFF7F2FF5C
:10229C000146054B5B681B0A03F00703034AD35C3A
:1022AC0021FA03F3184680BD00100240A854000820
:1022BC0080B500AFFFF7DEFF0146054B5B68DB0A1C
:1022CC0003F00703034AD35C21FA03F3184680BDDD
:1022DC0000100240A854000880B485B000AF7860AC
:1022EC000A4B1B680A4AA2FB03235B0A7A6802FBAF
:1022FC0003F3FB6000BFFB685A1EFA60002BF9D198
:10230C0000BF1437BD4680BC704700BF08000020DA
:10231C00D34D621080B586B000AF786000233B616E
:10232C000023FB607B681B6803F00103002B7DD04E
:10233C000023FB754F4BDB6903F08053002B0DD151
:10234C004C4A4C4BDB6943F08053D361494BDB69FE
:10235C0003F08053BB60BB680123FB75464B1B68C5
:10236C0003F48073002B18D1434A434B1B6843F48E
:10237C0080731360FDF73CFF386108E0FDF738FF10
:10238C0002463B69D31A642B01D903236DE03A4B07
:10239C001B6803F48073002BF0D0364B1B6A03F4DC
:1023AC004073FB60FB68002B2ED07B685B6803F4EA
:1023BC004072FB689A4227D02E4B1B6A23F4407361
:1023CC00FB602E4B01221A602C4B00221A60294A0A
:1023DC00FB681362FB6803F00103002B14D0FDF7BC
:1023EC0007FF38610AE0FDF703FF02463B69D31A89
:1023FC0041F28832934201D9032336E01D4B1B6A0C
:10240C0003F00203002BEED01A491A4B1B6A23F47B
:10241C0040727B685B6813430B62FB7D012B05D11B
:10242C00144A144BDB6923F08053D3617B681B681F
:10243C0003F00203002B08D00E490E4B5B6823F40B
:10244C0040427B689B6813434B607B681B6803F0BE
:10245C001003002B08D00749064B5B6823F480025D
:10246C007B68DB6813434B60002318461837BD4666
:10247C0080BD00BF0010024000700040400442428A
:10248C0090B58DB000AF7860554B07F10C040FCBB5
:10249C0084E80F00534B1B883B8100237B62002395
:1024AC00FB6200233B620023FB610023BB627B6861
:1024BC00022B7FD0102B02D0012B48D08BE04A4B43
:1024CC005B68FB61484B1B6803F08073002B7FD06B
:1024DC00FB699B0C03F00F0307F13002134413F854
:1024EC00243C3B62FB6903F48033002B18D03E4B39
:1024FC005B685B0C03F0010307F13002134413F823
:10250C00283C7B62FB6903F48033002B0DD0374AE7
:10251C007B6AB2FBF3F33A6A02FB03F3FB6204E05F
:10252C003B6A334A02FB03F3FB622F4B5B6803F4F9
:10253C008003B3F5800F02D1FB6ABB6248E0FB6AF3
:10254C005B002C4AA2FB03235B08BB6240E0264BDA
:10255C001B6AFB61FB6903F44073B3F5807F08D100
:10256C00FB6903F00203002B03D04FF40043BB6262
:10257C001FE0FB6903F44073B3F5007F09D11A4BDC
:10258C005B6A03F00203002B03D049F64043BB62A5
:10259C000FE0FB6903F44073B3F5407F1AD1124B83
:1025AC001B6803F40033002B14D04FF22443BB629E
:1025BC0010E00FE0FFF77CFE02460B4B5B689B0BB9
:1025CC0003F0030301335B00B2FBF3F3BB6202E0E5
:1025DC0000BF00E000BFBB6A18463437BD4690BD53
:1025EC006C5400087C5400080010024000127A0061
:1025FC0000093D00ABAAAAAA80B582B000AF7860F2
:10260C007B68002B01D1012341E07B6893F83D30BE
:10261C00DBB2002B06D17B68002283F83C20786863
:10262C0002F032F97B68022283F83D207B681A683D
:10263C007B6804331946104600F0D2FB7B680122FC
:10264C0083F846207B68012283F83E207B680122B8
:10265C0083F83F207B68012283F840207B680122AD
:10266C0083F841207B68012283F842207B68012299
:10267C0083F843207B68012283F844207B68012285
:10268C0083F845207B68012283F83D2000231846FF
:10269C000837BD4680BD80B582B000AF78607B68DE
:1026AC00002B01D1012341E07B6893F83D30DBB274
:1026BC00002B06D17B68002283F83C20786800F060
:1026CC0039F87B68022283F83D207B681A687B68A6
:1026DC0004331946104600F083FB7B68012283F813
:1026EC0046207B68012283F83E207B68012283F818
:1026FC003F207B68012283F840207B68012283F80D
:10270C0041207B68012283F842207B68012283F8F8
:10271C0043207B68012283F844207B68012283F8E4
:10272C0045207B68012283F83D200023184608379A
:10273C00BD4680BD80B483B000AF786000BF0C375D
:10274C00BD4680BC7047000080B584B000AF786097
:10275C0039603B68002B09D17B6893F83E30DBB2C3
:10276C00012B14BF01230023DBB222E03B68042BB6
:10277C0009D17B6893F83F30DBB2012B14BF0123E6
:10278C000023DBB215E03B68082B09D17B6893F87A
:10279C004030DBB2012B14BF01230023DBB208E075
:1027AC007B6893F84130DBB2012B14BF012300236B
:1027BC00DBB2002B01D001235EE03B68002B04D17F
:1027CC007B68022283F83E2013E03B68042B04D183
:1027DC007B68022283F83F200BE03B68082B04D176
:1027EC007B68022283F8402003E07B68022283F896
:1027FC0041207B681B6801223968184600F070FD87
:10280C007B681B681E4A934207D17B681B687A68F9
:10281C001268526C42F400425A647B681B68184A76
:10282C0093420ED07B681B68B3F1804F09D07B6854
:10283C001B68144A934204D07B681B68124A93426B
:10284C0011D17B681B689B6803F00703FB60FB6876
:10285C00062B10D07B681B687A681268126842F0ED
:10286C0001021A6007E07B681B687A6812681268BC
:10287C0042F001021A60002318461037BD4680BD95
:10288C00002C0140000400400008004080B582B0DC
:10289C0000AF78607B681B681B6903F00203022B96
:1028AC0022D17B681B68DB6803F00203022B1BD16F
:1028BC007B681B686FF002021A617B6801221A7731
:1028CC007B681B689B6903F00303002B03D07868BB
:1028DC0000F06BFA05E0786800F05EFA786800F0BA
:1028EC006DFA7B6800221A777B681B681B6903F002
:1028FC000403042B22D17B681B68DB6803F0040300
:10290C00042B1BD17B681B686FF004021A617B6877
:10291C0002221A777B681B689B6903F44073002BB7
:10292C0003D0786800F041FA05E0786800F034FADA
:10293C00786800F043FA7B6800221A777B681B6882
:10294C001B6903F00803082B22D17B681B68DB682A
:10295C0003F00803082B1BD17B681B686FF008027F
:10296C001A617B6804221A777B681B68DB6903F0A9
:10297C000303002B03D0786800F017FA05E07868A1
:10298C0000F00AFA786800F019FA7B6800221A77CE
:10299C007B681B681B6903F01003102B22D17B682A
:1029AC001B68DB6803F01003102B1BD17B681B68C2
:1029BC006FF010021A617B6808221A777B681B681B
:1029CC00DB6903F44073002B03D0786800F0EDF959
:1029DC0005E0786800F0E0F9786800F0EFF97B68C2
:1029EC0000221A777B681B681B6903F00103012B1B
:1029FC000ED17B681B68DB6803F00103012B07D148
:102A0C007B681B686FF001021A61786800F0BBF9F3
:102A1C007B681B681B6903F08003802B0ED17B68DD
:102A2C001B68DB6803F08003802B07D17B681B6875
:102A3C006FF080021A61786800F02EFD7B681B68CD
:102A4C001B6903F04003402B0ED17B681B68DB68CD
:102A5C0003F04003402B07D17B681B686FF04002EA
:102A6C001A61786800F0B3F97B681B681B6903F086
:102A7C002003202B0ED17B681B68DB6803F020033E
:102A8C00202B07D17B681B686FF020021A617868D5
:102A9C0000F0F9FC00BF0837BD4680BD80B584B09E
:102AAC0000AFF860B9607A60FB6893F83C30012B9A
:102ABC0001D10223ACE0FB68012283F83C207B6847
:102ACC000C2B00F29F8001A252F823F00D2B000872
:102ADC00112C0008112C0008112C00084D2B00089B
:102AEC00112C0008112C0008112C00088F2B000849
:102AFC00112C0008112C0008112C0008CF2B0008F9
:102B0C00FB681B68B968184600F0CCF9FB681B68B9
:102B1C00FA681268926942F008029A61FB681B68B5
:102B2C00FA681268926922F004029A61FB681B68C9
:102B3C00FA6812689169BA6812690A439A6162E08C
:102B4C00FB681B68B968184600F012FAFB681B6832
:102B5C00FA681268926942F400629A61FB681B6819
:102B6C00FA681268926922F480629A61FB681B68A9
:102B7C00FA6812689169BA68126912020A439A617A
:102B8C0041E0FB681B68B968184600F05BFAFB680B
:102B9C001B68FA681268D26942F00802DA61FB68B5
:102BAC001B68FA681268D26922F00402DA61FB68C9
:102BBC001B68FA681268D169BA6812690A43DA614B
:102BCC0021E0FB681B68B968184600F0A5FAFB68A1
:102BDC001B68FA681268D26942F40062DA61FB6819
:102BEC001B68FA681268D26922F48062DA61FB68A9
:102BFC001B68FA681268D169BA68126912020A4332
:102C0C00DA6100E000BFFB68002283F83C2000235F
:102C1C0018461037BD4680BD80B584B000AF7860D3
:102C2C0039607B6893F83C30012B01D10223A6E07C
:102C3C007B68012283F83C207B68022283F83D20CC
:102C4C007B681B689B68FB60FB6823F07703FB6069
:102C5C00FB6823F47F43FB607B681B68FA689A600F
:102C6C003B681B68402B67D0402B0BD8102B73D0C4
:102C7C00102B02D8002B6FD078E0202B6CD0302B8F
:102C8C006AD073E0702B0DD0702B04D8502B33D03E
:102C9C00602B41D06AE0B3F5805F66D0B3F5005F7E
:102CAC0017D063E07B6818683B6899683B685A6882
:102CBC003B68DB6800F0F5FA7B681B689B68FB607F
:102CCC00FB6843F07703FB607B681B68FA689A60CB
:102CDC004CE07B6818683B6899683B685A683B68AD
:102CEC00DB6800F0DEFA7B681B687A681268926811
:102CFC0042F480429A6039E07B6818683B685968F6
:102D0C003B68DB681A4600F055FA7B681B6850215B
:102D1C00184600F0ACFA29E07B6818683B685968E3
:102D2C003B68DB681A4600F073FA7B681B6860210D
:102D3C00184600F09CFA19E07B6818683B685968E3
:102D4C003B68DB681A4600F035FA7B681B6840214B
:102D5C00184600F08CFA09E07B681A683B681B681F
:102D6C001946104600F083FA00E000BF7B68012290
:102D7C0083F83D207B68002283F83C200023184612
:102D8C001037BD4680BD80B483B000AF786000BF03
:102D9C000C37BD4680BC704780B483B000AF786000
:102DAC0000BF0C37BD4680BC704780B483B000AF09
:102DBC00786000BF0C37BD4680BC704780B483B0D0
:102DCC0000AF786000BF0C37BD4680BC704780B444
:102DDC0083B000AF786000BF0C37BD4680BC704735
:102DEC0080B485B000AF786039607B681B68FB608D
:102DFC007B68294A93420BD07B68B3F1804F07D094
:102E0C007B68264A934203D07B68254A934208D1BB
:102E1C00FB6823F07003FB603B685B68FA68134344
:102E2C00FB607B681C4A93420BD07B68B3F1804FEC
:102E3C0007D07B68194A934203D07B68184A9342A7
:102E4C0008D1FB6823F44073FB603B68DB68FA68CD
:102E5C001343FB60FB6823F080023B685B69134300
:102E6C00FB607B68FA681A603B689A687B68DA6278
:102E7C003B681A687B689A627B68074A934203D165
:102E8C003B681A697B681A637B6801225A6100BF30
:102E9C001437BD4680BC7047002C01400004004034
:102EAC000008004080B487B000AF786039607B6860
:102EBC001B6A23F001027B681A627B681B6A7B61C8
:102ECC007B685B683B617B689B69FB60FB6823F0FC
:102EDC007003FB60FB6823F00303FB603B681B681B
:102EEC00FA681343FB607B6923F002037B613B6848
:102EFC009B687A6913437B617B681C4A93420CD1B3
:102F0C007B6923F008037B613B68DB687A691343B8
:102F1C007B617B6923F004037B617B68134A9342DA
:102F2C0011D13B6923F480733B613B6923F400733B
:102F3C003B613B685B693A6913433B613B689B6946
:102F4C003A6913433B617B683A695A607B68FA685B
:102F5C009A613B685A687B685A637B687A691A6223
:102F6C0000BF1C37BD4680BC704700BF002C014021
:102F7C0080B487B000AF786039607B681B6A23F03F
:102F8C0010027B681A627B681B6A7B617B685B68DA
:102F9C003B617B689B69FB60FB6823F4E043FB604F
:102FAC00FB6823F44073FB603B681B681B02FA68E8
:102FBC001343FB607B6923F020037B613B689B68B8
:102FCC001B017A6913437B617B681D4A93420DD1C7
:102FDC007B6923F080037B613B68DB681B017A69AA
:102FEC0013437B617B6923F040037B617B68144A4C
:102FFC00934213D13B6923F480633B613B6923F417
:10300C0000633B613B685B699B003A6913433B611E
:10301C003B689B699B003A6913433B617B683A6947
:10302C005A607B68FA689A613B685A687B689A6355
:10303C007B687A691A6200BF1C37BD4680BC70473A
:10304C00002C014080B487B000AF786039607B6899
:10305C001B6A23F480727B681A627B681B6A7B6133
:10306C007B685B683B617B68DB69FB60FB6823F01A
:10307C007003FB60FB6823F00303FB603B681B6879
:10308C00FA681343FB607B6923F400737B613B6834
:10309C009B681B027A6913437B617B681D4A9342D0
:1030AC000DD17B6923F400637B613B68DB681B02F9
:1030BC007A6913437B617B6923F480637B617B6852
:1030CC00144A934213D13B6923F480533B613B690F
:1030DC0023F400533B613B685B691B013A69134362
:1030EC003B613B689B691B013A6913433B617B68FD
:1030FC003A695A607B68FA68DA613B685A687B689F
:10310C00DA637B687A691A6200BF1C37BD4680BCE3
:10311C00704700BF002C014080B487B000AF7860CE
:10312C0039607B681B6A23F480527B681A627B6867
:10313C001B6A3B617B685B687B617B68DB69FB605E
:10314C00FB6823F4E043FB60FB6823F44073FB60F3
:10315C003B681B681B02FA681343FB603B6923F452
:10316C0000533B613B689B681B033A6913433B610B
:10317C007B680F4A934209D17B6923F480437B61BE
:10318C003B685B699B017A6913437B617B687A6955
:10319C005A607B68FA68DA613B685A687B681A6423
:1031AC007B683A691A6200BF1C37BD4680BC704709
:1031BC00002C014080B487B000AFF860B9607A6031
:1031CC00FB681B6A7B61FB681B6A23F00102FB68CE
:1031DC001A62FB689B693B613B6923F0F0033B611E
:1031EC007B681B013A6913433B617B6923F00A033B
:1031FC007B617A69BB6813437B61FB683A699A61AE
:10320C00FB687A691A6200BF1C37BD4680BC7047E8
:10321C0080B487B000AFF860B9607A60FB681B6A55
:10322C0023F01002FB681A62FB689B697B61FB68E8
:10323C001B6A3B617B6923F470437B617B681B03D6
:10324C007A6913437B613B6923F0A0033B61BB6844
:10325C001B013A6913433B61FB687A699A61FB680D
:10326C003A691A6200BF1C37BD4680BC704780B4F7
:10327C0085B000AF786039607B689B68FB60FB6849
:10328C0023F07003FB603A68FB68134343F00703B9
:10329C00FB607B68FA689A6000BF1437BD4680BC3F
:1032AC00704780B487B000AFF860B9607A603B605B
:1032BC00FB689B687B617B6923F47F437B613B6884
:1032CC001A027B681A43BB6813437A6913437B6108
:1032DC00FB687A699A6000BF1C37BD4680BC70479A
:1032EC0080B487B000AFF860B9607A60BB6803F057
:1032FC001F03012202FA03F37B61FB681A6A7B69E4
:10330C00DB431A40FB681A62FB681A6ABB6803F05D
:10331C001F03796801FA03F31A43FB681A6200BFB2
:10332C001C37BD4680BC704780B485B000AF786058
:10333C0039607B6893F83C30012B01D1022346E0C5
:10334C007B68012283F83C207B68022283F83D20B5
:10335C007B681B685B68FB607B681B689B68BB6059
:10336C00FB6823F07003FB603B681B68FA6813432F
:10337C00FB607B681B68FA685A607B681B68164A9E
:10338C0093420ED07B681B68B3F1804F09D07B68E9
:10339C001B68124A934204D07B681B68104A934204
:1033AC000CD1BB6823F08003BB603B685B68BA68D8
:1033BC001343BB607B681B68BA689A607B68012208
:1033CC0083F83D207B68002283F83C2000231846BC
:1033DC001437BD4680BC7047002C014000040040EF
:1033EC000008004080B485B000AF786039600023DD
:1033FC00FB607B6893F83C30012B01D102233DE04C
:10340C007B68012283F83C20FB6823F0FF023B68B9
:10341C00DB681343FB60FB6823F440723B689B68DA
:10342C001343FB60FB6823F480623B685B681343C7
:10343C00FB60FB6823F400623B681B681343FB6072
:10344C00FB6823F480523B681B691343FB60FB68E9
:10345C0023F400523B685B691343FB60FB6823F465
:10346C0080423B68DB691343FB607B681B68FA682E
:10347C005A647B68002283F83C20002318461437DA
:10348C00BD4680BC704780B483B000AF786000BF8D
:10349C000C37BD4680BC704780B483B000AF7860F9
:1034AC0000BF0C37BD4680BC704780B582B000AF02
:1034BC0078607B68002B01D101233FE07B6893F897
:1034CC003D30DBB2002B06D17B68002283F83C2018
:1034DC00786801F04BFA7B68242283F83D207B68E6
:1034EC001B687A681268D26822F40052DA60786835
:1034FC0000F086FC7B681B687A681268126922F4FB
:10350C0090421A617B681B687A681268526922F0D3
:10351C002A025A617B681B687A681268D26842F486
:10352C000052DA607B6800221A647B68202283F8E0
:10353C003D207B68202283F83E2000231846083764
:10354C00BD4680BD80B58AB002AFF860B9603B6003
:10355C001346FB8000237B61FB6893F83D30DBB2A4
:10356C00202B7BD1BB68002B02D0FB88002B01D118
:10357C00012374E0FB6893F83C30012B01D102234A
:10358C006DE0FB68012283F83C20FB6800221A6482
:10359C00FB68212283F83D20FCF72AFE7861FB684A
:1035AC00FA889A84FB68FA88DA84FB689B68B3F51E
:1035BC00805F08D1FB681B69002B04D10023FB61E1
:1035CC00BB68BB6103E0BB68FB610023BB61FB68AC
:1035DC00002283F83C2029E03B6800937B690022A1
:1035EC008021F86800F039FA0346002B01D0032340
:1035FC0035E0FB69002B0AD1FB681B68BA6912889D
:10360C00C2F308025A60BB690233BB6107E0FB6876
:10361C001B68FA6912785A60FB690133FB61FB681D
:10362C00DB8C9BB2013B9AB2FB68DA84FB68DB8CC7
:10363C009BB2002BD0D13B6800937B6900224021C8
:10364C00F86800F00AFA0346002B01D0032306E0C9
:10365C00FB68202283F83D20002300E0022318465B
:10366C002037BD4680BD80B584B000AFF860B9602E
:10367C001346FB80FB6893F83E30DBB2202B1DD148
:10368C00BB68002B02D0FB88002B01D1012316E074
:10369C00FB6893F83C30012B01D102230FE0FB684F
:1036AC00012283F83C20FB6800221A63FB881A462F
:1036BC00B968F86800F01BFA034600E002231846CC
:1036CC001037BD4680BD000080B58AB000AF786071
:1036DC007B681B681B687B627B681B68DB683B62D2
:1036EC007B681B685B69FB610023BB6100237B610A
:1036FC007B6A03F00F03BB61BB69002B0DD17B6AA6
:10370C0003F02003002B08D03B6A03F02003002BAE
:10371C0003D0786800F0CAFA7CE1BB69002B00F09A
:10372C00B180FB6903F00103002B05D13B6A03F464
:10373C009073002B00F0A6807B6A03F00103002B32
:10374C000AD03B6A03F48073002B05D07B681B6C9A
:10375C0043F001027B681A647B6A03F00403002BBC
:10376C000AD0FB6903F00103002B05D07B681B6CAE
:10377C0043F002027B681A647B6A03F00203002B9D
:10378C000AD0FB6903F00103002B05D07B681B6C8E
:10379C0043F004027B681A647B6A03F00803002B75
:1037AC000FD03B6A03F02003002B04D1FB6903F01C
:1037BC000103002B05D07B681B6C43F008027B686F
:1037CC001A647B681B6C002B00F01F817B6A03F072
:1037DC002003002B07D03B6A03F02003002B02D000
:1037EC00786800F063FA7B681B685B6903F0400340
:1037FC00002B14BF01230023DBB27B617B681B6CA5
:10380C0003F00803002B02D17B69002B31D07868C0
:10381C0000F0A6F97B681B685B6903F04003002B82
:10382C0023D07B681B687A681268526922F04002C8
:10383C005A617B689B6B002B13D07B689B6B774A20
:10384C005A637B689B6B1846FDF71CFB0346002BE9
:10385C0016D07B689B6B5B6B7A68926B10469847B3
:10386C000EE0786800F0E5F80AE0786800F0E1F81E
:10387C0006E0786800F0DDF87B6800221A64C4E08A
:10388C0000BFC2E07B681B6B012B40F0A1807B6A00
:10389C0003F01003002B00F09B803B6A03F0100335
:1038AC00002B00F095800023FB607B681B681B6875
:1038BC00FB607B681B685B68FB60FB687B681B6854
:1038CC005B6903F04003002B4ED07B689B6B1B683D
:1038DC005B687B827B8A002B00F099807B689B8DD8
:1038EC007A8A9A4280F093807B687A8ADA857B6840
:1038FC009B6B9B69202B2BD07B681B687A681268AA
:10390C00D26822F48072DA607B681B687A6812686D
:10391C00526922F001025A617B681B687A6812684E
:10392C00526922F040025A617B68202283F83E20C3
:10393C007B6800221A637B681B687A681268D268FD
:10394C0022F01002DA607B689B6B1846FDF75FFA79
:10395C007B689A8D7B68DB8D9BB2D31A9BB2194620
:10396C00786800F06FF852E07B689A8D7B68DB8D8D
:10397C009BB2D31A3B827B68DB8D9BB2002B48D069
:10398C003B8A002B45D07B681B687A681268D2682A
:10399C0022F49072DA607B681B687A68126852694C
:1039AC0022F001025A617B68202283F83E207B685A
:1039BC0000221A637B681B687A681268D26822F04E
:1039CC001002DA603B8A1946786800F03BF820E078
:1039DC007B6A03F08003002B08D03B6A03F0800362
:1039EC00002B03D0786800F0FBF813E07B6A03F03F
:1039FC004003002B0ED03B6A03F04003002B09D090
:103A0C00786800F03BF900BF04E000BF02E000BFA3
:103A1C0000E000BF2837BD4680BD00BFC53B000895
:103A2C0080B483B000AF786000BF0C37BD4680BC5B
:103A3C00704780B483B000AF786000BF0C37BD46D0
:103A4C0080BC704780B483B000AF78600B467B803D
:103A5C0000BF0C37BD4680BC704780B584B000AF4A
:103A6C00F860B9603B601346FB712CE0BB69B3F1A5
:103A7C00FF3F28D0BB69002B07D0FCF7B9FB0246EF
:103A8C003B68D21ABB699A421DD9FB681B68FA685D
:103A9C001268D26822F4D072DA60FB681B68FA688C
:103AAC001268526922F001025A61FB68202283F8E5
:103ABC003D20FB68202283F83E20FB68002283F81F
:103ACC003C2003230FE0FB681B681A68BB681A4094
:103ADC00BB689A420CBF01230023DBB21A46FB7968
:103AEC009A42C3D0002318461037BD4680BD80B41F
:103AFC0085B000AFF860B9601346FB80FB68BA680C
:103B0C009A62FB68FA889A85FB68FA88DA85FB6802
:103B1C0000221A64FB68222283F83E20FB680022F4
:103B2C0083F83C20FB681B68FA681268D26842F480
:103B3C008072DA60FB681B68FA681268526942F09E
:103B4C0001025A61FB681B68FA681268D26842F07D
:103B5C002002DA60002318461437BD4680BC70473B
:103B6C0080B483B000AF78607B681B687A68126899
:103B7C00D26822F49072DA607B681B687A681268EB
:103B8C00526922F001025A617B681B6B012B07D131
:103B9C007B681B687A681268D26822F01002DA60BF
:103BAC007B68202283F83E207B6800221A6300BFCA
:103BBC000C37BD4680BC704780B584B000AF7860D0
:103BCC007B685B6AFB60FB680022DA85FB6800227D
:103BDC00DA84F868FFF72DFF00BF1037BD4680BDB3
:103BEC0080B485B000AF78607B6893F83D30DBB271
:103BFC00212B3DD17B689B68B3F5805F13D17B682B
:103C0C001B69002B0FD17B681B6AFB607B681B68F0
:103C1C00FA681288C2F308025A607B681B6A9A1C05
:103C2C007B681A6208E07B681A687B681B6A581C00
:103C3C00796808621B7853607B68DB8C9BB2013B14
:103C4C009BB27A681946D184002B0FD17B681B6814
:103C5C007A681268D26822F08002DA607B681B688E
:103C6C007A681268D26842F04002DA60002300E001
:103C7C00022318461437BD4680BC704780B582B00D
:103C8C0000AF78607B681B687A681268D26822F093
:103C9C004002DA607B68202283F83D207868FFF7C9
:103CAC00BFFE002318460837BD4680BD80B586B0E0
:103CBC0000AF78607B6893F83E30DBB2222B40F08B
:103CCC0099807B689B68B3F5805F17D17B681B6913
:103CDC00002B13D100237B617B689B6A3B617B6863
:103CEC001B685B689BB2C3F308039AB23B691A80EA
:103CFC007B689B6A9A1C7B689A6226E07B689B6A4D
:103D0C007B6100233B617B689B68B3F5805F07D0C8
:103D1C007B689B68002B0AD17B681B69002B06D142
:103D2C007B681B685B68DAB27B691A7008E07B6899
:103D3C001B685B68DBB203F07F03DAB27B691A7035
:103D4C007B689B6A5A1C7B689A627B68DB8D9BB292
:103D5C00013B9BB27A681946D185002B48D17B6810
:103D6C001B687A681268D26822F02002DA607B68DD
:103D7C001B687A681268D26822F48072DA607B68F9
:103D8C001B687A681268526922F001025A617B68DA
:103D9C00202283F83E207B681B6B012B23D17B6890
:103DAC0000221A637B681B687A681268D26822F05A
:103DBC001002DA607B681B681B6803F01003102B81
:103DCC000AD10023FB607B681B681B68FB607B6867
:103DDC001B685B68FB60FB687B689B8D1946786889
:103DEC00FFF730FE02E0786800F05CF9002302E097
:103DFC00002300E0022318461837BD4680BD0000A2
:103E0C0090B585B000AF78607B681B687A681268E3
:103E1C00126922F440517A68D2680A431A617B68AD
:103E2C009A687B681B691A437B685B691343BB60A8
:103E3C007B681A687B681B68DB6823F4B05323F03B
:103E4C000C03B9680B43D3607B681B687A681268F3
:103E5C00526922F440717A6892690A435A617B680C
:103E6C001B682C4A934203D1FEF722FAF86002E059
:103E7C00FEF70AFAF8607B681968FA6813469B002B
:103E8C0013449A001A447B685B689B00B2FBF3F303
:103E9C00214AA2FB03235B091801FA6813469B0015
:103EAC0013449A001A447B685B689B00B2FBF3F2E4
:103EBC00194BA3FB02435B09642404FB03F3D31AE1
:103ECC001B013233144AA2FB03235B0903F0F003FA
:103EDC001844FA6813469B0013449A001A447B68F2
:103EEC005B689B00B2FBF3F20B4BA3FB02435B0939
:103EFC00642404FB03F3D31A1B013233064AA2FBDE
:103F0C0003235B0903F00F0303448B6000BF1437DA
:103F1C00BD4690BD003801401F85EB5180B586B081
:103F2C0002AF0346FB71FB7923F00F03FB73FB79A4
:103F3C001B01BB73FB7B43F00C03DBB23B72FB7BC3
:103F4C0043F00803DBB27B72BB7B43F00C03DBB2A8
:103F5C00BB72BB7B43F00803DBB2FB7207F10802B8
:103F6C006423009304234E210348FDF7B1FA00BFEC
:103F7C001037BD4680BD00BFE000002080B586B084
:103F8C0002AF0346FB71FB7923F00F03FB73FB7944
:103F9C001B01BB73FB7B43F00D03DBB23B72FB7B62
:103FAC0043F00903DBB27B72BB7B43F00D03DBB246
:103FBC00BB72BB7B43F00903DBB2FB7207F1080257
:103FCC006423009304234E210348FDF781FA00BFBC
:103FDC001037BD4680BD00BFE000002080B500AFAB
:103FEC003320FFF79BFF3220FFF798FF3220FCF7BE
:103FFC0009F92820FFF792FF3220FCF703F9012082
:10400C00FFF78CFF3220FCF7FDF80620FFF786FF48
:10401C003220FCF7F7F80C20FFF780FF3220FCF77A
:10402C00F1F80220FFF77AFF3220FCF7EBF8802042
:10403C00FFF774FF00BF80BD80B582B000AF786021
:10404C0006E07B685A1C7A601B781846FFF796FFCF
:10405C007B681B78002BF4D100BF0837BD4680BDB0
:10406C0080B584B000AF786039607B68012B08D1D3
:10407C007B68DAB23B68DBB21344DBB27F33FB7391
:10408C0008E03B68DBB24033DBB25BB263F07F032A
:10409C005BB2FB73FB7B1846FFF740FF00BF10378A
:1040AC00BD4680BD80B582B000AF78607B681B6870
:1040BC000D4A93420FD10D4B1B78622B03D10C4B45
:1040CC001B6819225A63094B1B78632B03D1084BCD
:1040DC001B687D225A63012204490648FFF7C3FA84
:1040EC0000BF0837BD4680BD00480040AC01002031
:1040FC00640100209C00002080B59EB000AF786069
:10410C0000237B671EE07B68B3F5617F0CDD4148C3
:10411C00FCF726FB03461A467B6F9B0007F17801E0
:10412C000B4443F86C2C07E07B6F9B0007F1780283
:10413C001344002243F86C2C0520FCF763F87B6FCA
:10414C0001337B677B6F132BDDDD00233B673AE08C
:10415C003B6F0133FB6630E03B6F9B0007F178024D
:10416C00134453F86C2CFB6E9B0007F178010B4445
:10417C0053F86C3C9A421DDD3B6F9B0007F17802B3
:10418C00134453F86C3C3B66FB6E9B0007F17802C2
:10419C00134453F86C2C3B6F9B0007F178010B44D4
:1041AC0043F86C2CFB6E9B0007F1780213443A6EBB
:1041BC0043F86C2CFB6E0133FB66FB6E132BCBDDD3
:1041CC003B6F01333B673B6F122BC1DD0023BB669A
:1041DC0005237B660CE07B6E9B0007F17802134491
:1041EC0053F86C3CBA6E1344BB667B6E01337B6632
:1041FC007B6E0E2BEFDDBB6E074A82FB0312921017
:10420C00DB17D31AA7F85E30B7F85E30184678374C
:10421C00BD4680BD340100206766666680B586B0F9
:10422C0000AFFBF78DFF00F093F800F025FA00F0DB
:10423C00EBF800F027F900F053F900F0F3F9002146
:10424C003C48FEF781FA4FF47A70FBF7DBFFFFF77F
:10425C00C5FE3948FCF724FC012238493848FFF7E1
:10426C0002FA3548FCF7C8F84FF47A713248FCF77B
:10427C0071F93148FCF774FA0346FB822E48FCF7BF
:10428C006FFA03461846FFF737FF0346BB82BA8A1C
:10429C0007F10C032B49184600F0A0FCFA8A3B1DD1
:1042AC002849184600F09AFC00210020FFF7D8FEA0
:1042BC002548FFF7C1FE07F10C031846FFF7BCFEBB
:1042CC0000210120FFF7CCFE2048FFF7B5FE3B1D77
:1042DC001846FFF7B1FE194B1B78612B27D0174BF3
:1042EC001B78622B23D0154B1B78632B1FD0391DE9
:1042FC00642305221248FFF725F9BB8AB3F5966FA4
:10430C0008D90C4B1B687D225A634FF4FA70FBF7EB
:10431C0079FF07E0074B1B6819225A634FF4FA70B8
:10432C00FBF770FF4FF40070FBF76CFF99E700BFD1
:10433C0097E700BF6401002034010020AC0100208D
:10434C009C00002080540008845400088C54000801
:10435C0080B594B000AF07F128032822002118463D
:10436C0000F034FC07F1140300221A605A609A60C2
:10437C00DA601A613B1D00221A605A609A60DA609A
:10438C000123BB624FF48033FB6200233B630123A8
:10439C00BB6302237B644FF48033BB644FF4E013A4
:1043AC00FB6407F128031846FDF798FB0346002B26
:1043BC0001D000F0B9F90F237B610223BB6100230C
:1043CC00FB614FF480633B6200237B6207F11403B3
:1043DC0002211846FDF702FE0346002B01D000F027
:1043EC00A3F902237B604FF40043FB603B1D18468E
:1043FC00FDF790FF0346002B01D000F095F900BFAC
:10440C005037BD4680BD000080B584B000AF3B1D69
:10441C0000221A605A609A60184B194A1A60174B9E
:10442C0000229A60154B00221A73144B00221A7545
:10443C00124B4FF46022DA61104B00225A600F4B82
:10444C0001221A610D48FBF7FFFE0346002B01D039
:10445C0000F06AF900237B600123BB600023FB6042
:10446C003B1D19460548FCF787F90346002B01D084
:10447C0000F05AF900BF1037BD4680BD3401002052
:10448C000024014080B500AF124B134A1A60114B47
:10449C00124A5A600F4B00229A600E4B0022DA60CF
:1044AC000C4B4FF480421A610A4B00225A61094BA3
:1044BC0000229A61074B0022DA61064B00221A6235
:1044CC000448FCF7CDFE0346002B01D000F02CF97C
:1044DC0000BF80BDE000002000540040A086010019
:1044EC0080B596B000AF07F1480300221A605A60FD
:1044FC009A60DA6007F1400300221A605A6007F1F3
:10450C00240300221A605A609A60DA601A615A61B8
:10451C009A613B1D20220021184600F057FB3F4BAF
:10452C003F4A1A603D4B40F29F525A603B4B00226F
:10453C009A603A4B40F2E732DA60384B00221A614B
:10454C00364B00225A61354B00229A613348FEF7F4
:10455C0053F80346002B01D000F0E6F84FF48053DB
:10456C00BB6407F1480319462C48FEF755FB03467C
:10457C00002B01D000F0D8F82848FEF78CF8034641
:10458C00002B01D000F0D0F800233B6400237B64A7
:10459C0007F1400319462148FEF7C6FE0346002BDF
:1045AC0001D000F0C1F860237B620023BB620023C2
:1045BC00FB6200233B6300237B630023BB6300236C
:1045CC00FB6307F12403002219461448FEF766FA30
:1045DC000346002B01D000F0A7F800237B600023DA
:1045EC00BB600023FB6000233B6100237B614FF425
:1045FC000053BB6100233B623B1D19460748FEF785
:10460C00F1FE0346002B01D000F08EF8034800F0B9
:10461C0079F900BF5837BD4680BD00BF640100204A
:10462C00002C014080B500AF114B124A1A60104BA0
:10463C004FF4E1325A600E4B00229A600C4B002270
:10464C00DA600B4B00221A61094B0C225A61084BA1
:10465C0000229A61064B0022DA610548FEF725FF1D
:10466C000346002B01D000F05FF800BF80BD00BFF7
:10467C009C0000200048004080B588B000AF07F1D6
:10468C00100300221A605A609A60DA60244A244BA4
:10469C009B6943F010039361214B9B6903F010035A
:1046AC00FB60FB681E4A1E4B9B6943F02003936121
:1046BC001B4B9B6903F02003BB60BB68184A184B6B
:1046CC009B6943F004039361154B9B6903F004034E
:1046DC007B607B68124A124B9B6943F00803936121
:1046EC000F4B9B6903F008033B603B6800224FF4BF
:1046FC0000510C48FCF79CFD4FF400533B61012327
:10470C007B610023BB610223FB6107F11003194697
:10471C000448FCF733FC00BF2037BD4680BD00BF0A
:10472C00001002400010014080B400AF72B6FEE7EA
:10473C0080B485B000AF154A144B9B6943F001035C
:10474C009361124B9B6903F00103BB60BB680F4A7A
:10475C000E4BDB6943F08053D3610C4BDB6903F0E8
:10476C0080537B607B680A4B5B68FB60FB6823F0C3
:10477C00E063FB60FB6843F00073FB60044AFB687A
:10478C00536000BF1437BD4680BC70470010024018
:10479C000000014080B588B000AF786007F11003CD
:1047AC0000221A605A609A60DA607B681B68144AAF
:1047BC00934221D1134A134B9B6943F400739361C9
:1047CC00104B9B6903F40073FB60FB680D4A0D4BA7
:1047DC009B6943F0040393610A4B9B6903F0040348
:1047EC00BB60BB6801233B6103237B6107F11003B2
:1047FC0019460548FCF7C2FB00BF2037BD4680BDFB
:10480C0000240140001002400008014080B588B02F
:10481C0000AF786007F1100300221A605A609A60AA
:10482C00DA607B681B68154A934223D1144A144BF7
:10483C009B6943F008039361114B9B6903F00803D8
:10484C00FB60FB68C0233B6112237B610323FB618C
:10485C0007F1100319460B48FCF790FB084A084B6C
:10486C00DB6943F40013D361054BDB6903F40013DC
:10487C00BB60BB6800BF2037BD4680BD0054004004
:10488C0000100240000C014080B584B000AF78608D
:10489C007B681B68194A93422BD1194A184B9B69A8
:1048AC0043F400639361164B9B6903F40063FB6054
:1048BC00FB68002200211820FCF773FA1820FCF783
:1048CC008CFA002200211920FCF76BFA1920FCF756
:1048DC0084FA002200211A20FCF763FA1A20FCF754
:1048EC007CFA002200211B20FCF75BFA1B20FCF752
:1048FC0074FA00BF1037BD4680BD00BF002C0140CC
:10490C000010024080B588B000AF786007F110034A
:10491C0000221A605A609A60DA607B681B68104A41
:10492C00934218D10F4A0F4B9B6943F004039361D8
:10493C000C4B9B6903F00403FB60FB684FF4807322
:10494C003B6102237B610223FB6107F110031946D3
:10495C000548FCF713FB00BF2037BD4680BD00BFE8
:10496C00002C0140001002400008014080B588B0C6
:10497C0000AF786007F1100300221A605A609A6049
:10498C00DA607B681B68204A934239D11F4A1F4B5F
:10499C00DB6943F48023D3611C4BDB6903F4802374
:1049AC00FB60FB68194A194B9B6943F00803936140
:1049BC00164B9B6903F00803BB60BB684FF4806324
:1049CC003B6102237B610323FB6107F11003194652
:1049DC000F48FCF7D3FA4FF400633B6100237B6173
:1049EC000023BB6107F1100319460948FCF7C6FA0E
:1049FC00002200212720FCF7D4F92720FCF7EDF941
:104A0C0000BF2037BD4680BD00480040001002406A
:104A1C00000C014080B400AFFEE780B400AFFEE7AD
:104A2C0080B400AFFEE780B400AFFEE780B400AF07
:104A3C00FEE780B400AF00BFBD4680BC704780B4B9
:104A4C0000AF00BFBD4680BC704780B400AF00BF54
:104A5C00BD4680BC704780B500AFFBF7B7FB00BF0D
:104A6C0080BD000080B500AF0248FDF70FFF00BF0E
:104A7C0080BD00BF6401002080B500AF0248FDF787
:104A8C0005FF00BF80BD00BF6401002080B500AFF2
:104A9C000248FDF7FBFE00BF80BD00BF6401002093
:104AAC0080B500AF0248FDF7F1FE00BF80BD00BF2E
:104ABC006401002080B500AF0248FEF705FE00BF80
:104ACC0080BD00BF9C00002080B584B000AF786032
:104ADC00114B1B68002B02D10F4B104A1A600E4B66
:104AEC001B68FB600C4B1A687B6813446A46934244
:104AFC0007D900F041F802460C2313604FF0FF3346
:104B0C0006E0054B1A687B681344034A1360FB6884
:104B1C0018461037BD4680BD8C000020B401002023
:104B2C0080B400AF00BFBD4680BC70470C480D4937
:104B3C000D4A002302E0D458C4500433C4188C42EC
:104B4C00F9D30A4A0A4C002301E013600432A24252
:104B5C00FBD3FFF7E5FF00F015F8FFF75FFB70479D
:104B6C000000002070000020EC54000870000020B1
:104B7C00B4010020FEE70000014B1868704700BF2D
:104B8C000C00002070B500250C4E0D4CA41BA4107D
:104B9C00A54209D100F04EFC00250A4E0A4CA41B7C
:104BAC00A410A54205D170BD56F8253098470135A3
:104BBC00EEE756F8253098470135F2E7E454000843
:104BCC00E4540008E4540008E85400080346024486
:104BDC00934200D1704703F8011BF9E70EB44FF470
:104BEC00027100B59CB0ADF814106FF00041049147
:104BFC0007914FF6FF711DAB02900690084853F8D1
:104C0C00042BADF81610006802A9019300F066F8A9
:104C1C000022029B1A701CB05DF804EB03B07047C5
:104C2C000C0000202DE9F0478E6882469E420C460F
:104C3C009146984635D88A8912F4906F31D0022368
:104C4C00256809696F1A656905EB450595FBF3F550
:104C5C0008F101033B449D4238BF1D46530531D535
:104C6C00294600F047FB064650B90C23CAF8003021
:104C7C00A3894FF0FF3043F04003A381BDE8F087D8
:104C8C003A46216900F0C4FAA38923F4906343F0F7
:104C9C008003A38126613E44266046466561ED1B78
:104CAC00A560464528BF464649463246206800F076
:104CBC00BAFAA36800209B1BA36023681E442660DD
:104CCC00BDE8F0872A4600F073FB06460028E1D1C8
:104CDC002169504600F0C2FAC7E700002DE9F04FF9
:104CEC009DB003938B8980461C060D4616460FD546
:104CFC000B696BB9402100F0FDFA2860286128B9D6
:104D0C000C23C8F800304FF0FF30C4E040236B6137
:104D1C000023099320238DF8293030234FF0010B09
:104D2C008DF82A3037463C4614F8013B002B3CD119
:104D3C00B7EB060A0BD05346324629464046FFF7DE
:104D4C0071FF013000F0A280099B534409933B781A
:104D5C00002B00F09B8000234FF0FF32049307934D
:104D6C00059206938DF853301A93052221785048FA
:104D7C0000F040FA671C049BD8B9D90644BF202226
:104D8C008DF853201A0744BF2B228DF8532022781C
:104D9C002A2A16D000210A20079A27463B7801348C
:104DAC00303B092B50D9C9B111E0252BC0D0274677
:104DBC00B9E73F4A3C46801A0BFA00F018430490BE
:104DCC00D3E7039A111D12680391002A01DB0792A5
:104DDC0004E0524243F00203079204933B782E2BDB
:104DEC000DD17B78791C2A2B32D1039B02371A1DEB
:104DFC001B680392002BB8BF4FF0FF3305932D4C6B
:104E0C0003223978204600F0F5F938B14023001B15
:104E1C0003FA00F0049B013703430493397806220C
:104E2C0025487E1C8DF8281000F0E4F9002835D0B8
:104E3C00224BFBB9039B073323F00703083303937F
:104E4C00099B4B4409936DE700FB02320121A4E757
:104E5C0000230A24184605930F463A780131303A5C
:104E6C00092A03D9002BCAD00590C8E704FB0020FF
:104E7C000123F1E703AB00932A46114B04A94046EA
:104E8C00AFF30080B0F1FF3F8146D9D1AB895B060F
:104E9C003FF539AF09981DB0BDE8F08F03AB009317
:104EAC002A46074B04A9404600F084F8EAE700BF05
:104EBC00B0540008B6540008BA54000800000000B2
:104ECC00314C00082DE9F04791461F468A680B6962
:104EDC0006469342B8BF1346C9F8003091F84320F8
:104EEC000C46DDF8208012B10133C9F8003023687C
:104EFC00990642BFD9F800300233C9F80030256852
:104F0C0015F0060507D104F1190AE368D9F8002059
:104F1C009B1A9D422ADB94F843302268003318BF59
:104F2C00012392062FD404F1430239463046C04780
:104F3C00013022D02368E56803F00603042B18BF68
:104F4C000025D9F800204FF0000908BFAD1AA3685E
:104F5C00226908BF25EAE5759342C4BF9B1AED1878
:104F6C001A344D451BD10020BDE8F0870123524671
:104F7C0039463046C047013003D14FF0FF30BDE811
:104F8C00F0870135C1E73020E11881F843005A1C45
:104F9C0094F845102244023382F84310C3E70123EE
:104FAC00224639463046C0470130E6D009F10109A6
:104FBC00D7E700002DE9F04317460A7E85B06E2A2C
:104FCC00984606460C460C9B01F1430E00F0BC8043
:104FDC001AD8632A2ED00AD8002A00F0C880582A82
:104FEC0000F08A8004F1420584F842202AE0642A09
:104FFC0001D0692AF6D121681A6811F0800F23D0EC
:10500C00111D1960136827E0732A00F0B48008D8CA
:10501C006F2A2AD0702AE5D10A6842F020020A6071
:10502C0003E0752A21D0782ADCD178226F4984F8E4
:10503C00452064E01A6801F14205111D19601368DE
:10504C0084F842300123A3E011F0400F02F1040177
:10505C001960D7D0B2F90030002B03DA2D225B4255
:10506C0084F8432062490A2217E02068196810F07E
:10507C00800F03D0081D18600B6806E010F0400F7D
:10508C0001F104001860F7D00B886F2A14BF0A22B4
:10509C0008225749002084F843006568002DA5605C
:1050AC00C0F29C80206820F004002060002B3FD1CF
:1050BC00002D40F095807546082A0BD12368DA073D
:1050CC0008D5236962689A42DEBF302305F8013C9B
:1050DC0005F1FF35AEEB05032361CDF800803B46AF
:1050EC0003AA21463046FFF7EDFE013055D14FF0B3
:1050FC00FF3005B0BDE8F08381F845203C492268BB
:10510C00186812F0800F00F104051D6001D00368CF
:10511C0002E05506FBD50388D00744BF42F02002BD
:10512C0022601BB9226822F0200222601022B1E713
:10513C007546B3FBF2F002FB1033CB5C05F8013D76
:10514C0003460028F5D1B7E708681A6810F0800FFD
:10515C00496904D0101D18601368196007E010F03D
:10516C00400F02F1040018601368F6D01980002378
:10517C0075462361B1E71A68111D19601568002185
:10518C006268284600F036F808B1401B606063681E
:10519C002361002384F843309FE723692A4639466C
:1051AC003046C0470130A2D023689B0707D50025A5
:1051BC0004F11909E368039A9B1A9D4205DBE06828
:1051CC00039B9842B8BF184693E701234A463946D9
:1051DC003046C04701308AD00135EBE7002BA7D110
:1051EC000B7804F1420584F8423065E7D25400088C
:1051FC00C154000810B5C9B202449042034601D113
:10520C00002010BD1C7801308C42F6D1184610BD20
:10521C0010B5431E0A44914200D110BD11F8014B48
:10522C0003F8014FF7E7884210B501EB020303D8EE
:10523C00421E99420CD110BD9842F9D28118D21A53
:10524C00D34200D110BD13F8014D01F8014DF7E721
:10525C0011F8014B02F8014FEBE7000038B5054699
:10526C00002943D051F8043C0C1F002BB8BFE418A4
:10527C0000F0D4F81E4A1368104633B9636014600A
:10528C002846BDE8384000F0CAB8A3420BD92168C3
:10529C006218934201BF1A685B68521822606360FF
:1052AC000460EDE713465A680AB1A242FAD91968AC
:1052BC005818A0420BD1206801445818824219603A
:1052CC00DED110685268014419605A60D8E702D9DF
:1052DC000C232B60D4E7206821188A4201BF116887
:1052EC0052680918216062605C60C9E738BD00BF74
:1052FC009000002070B5CD1C25F0030508350C2D51
:10530C0038BF0C25002D064601DBA94203D90C231E
:10531C003360002070BD00F081F8234A14682146E8
:10532C0091B9224C23681BB9304600F067F8206015
:10533C002946304600F062F8431C26D10C23304637
:10534C00336000F06CF8E4E70B685B1B1AD40B2B92
:10535C000FD90B60CC18CD50304600F060F804F13A
:10536C000B00231D20F00700C31A1BD05A42E25039
:10537C0070BD8C420BBF63684B681360636018BFD1
:10538C000C46E9E70C464968CAE7C41C24F0030440
:10539C00A04205D0211A304600F030F80130CDD0B3
:1053AC002560D9E770BD00BF90000020940000205C
:1053BC00F8B5074614460E4621B91146BDE8F8402B
:1053CC00FFF798BF22B9FFF749FF25462846F8BDDD
:1053DC0000F026F884420FD921463846FFF78AFFA1
:1053EC0005460028F2D031462246FFF711FF314620
:1053FC003846FFF733FFE9E73546E7E738B50023D2
:10540C00054C054608462360FFF75EFB431C02D1A2
:10541C00236803B12B6038BDB00100207047704782
:10542C0051F8040C0028A0F10400BCBF0B58C018A4
:10543C0070470000F8B500BFF8BC08BC9E4670472A
:0C544C00F8B500BFF8BC08BC9E467047D5
:1054580002030405060708090A0B0C0D0E0F1010AD
:105468000102000002030405060708090A0B0C0DD7
:105478000E0F10100102000025640A0044615F6CE1
:105488006F633A00436875615F6C6F633A000000B0
:1054980000000000000000000102030406070809DC
:1054A8000000000001020304232D302B2000686C4B
:1054B8004C0065666745464700303132333435362F
:1054C8003738394142434445460030313233343568
:0C54D80036373839616263646566000095
:0454E400310100088A
:0454E8000D010008AA
:1054EC0010000000010000000024F4001000002057
:1054FC0000000000000000000000000000000000A0
:10550C00000000000000000000000000000000008F
:10551C00000000000000000000000000000000007F
:10552C00000000000000000000000000000000006F
:10553C00000000000000000000000000000000005F
:10554C00000000000000000000000000000000004F
:0400000508004B396B
:00000001FF
